:020000040800F2
:1000000000C00020E1CE000875AE00084D40000899
:1000100000000000000000000000000000000000E0
:1000200000000000000000000000000077AE0008A3
:10003000000000000000000079AE00089DBD00082F
:100040007BAE00087DAE00087FAE000881AE0008E0
:1000500083AE000885AE000887AE000889AE0008B0
:100060008BAE00088DAE00088FAE000891AE000880
:1000700093AE000895AE000897AE000899AE000850
:100080009BAE00089DAE00089FAE0008A1AE000820
:10009000A3AE0008A5AE0008A7AE0008A9AE0008F0
:1000A000ABAE0008ADAE0008AFAE0008B1AE0008C0
:1000B000B3AE0008B5AE0008B7AE0008B9AE000890
:1000C000BBAE0008BDAE0008BFAE0008C1AE000860
:1000D000C3AE0008C5AE0008C7AE0008C9AE000830
:1000E000CBAE0008CDAE0008CFAE0008D1AE000800
:1000F000D3AE0008D5AE0008D7AE0008D9AE0008D0
:10010000DBAE0008DDAE0008DFAE0008E1AE00089F
:10011000E3AE0008E5AE0008E7AE0008E9AE00086F
:10012000EBAE0008EDAE0008EFAE0008F1AE00083F
:1001300001000000000000000A00000000000000B4
:100140006400000000000000E80300000000000060
:100150001027000000000000A08601000000000041
:1001600040420F0000000000809698000000000050
:1001700000E1F5050000000000CA9A3B0000000005
:1001800000E40B540200000000E87648170000006D
:100190000010A5D4E800000000A0724E180900006D
:1001A00000407A10F35A00000080C6A47E8D030040
:1001B0000000C16FF286230000008A5D784563016C
:1001C000000064A7B3B6E00D0000E8890423C78AE5
:1001D00000B541F20003C4F202030C22196841F099
:1001E000010119605968CEF6FF0211405960196883
:1001F0004FF6FF72CFF6F66211401960196821F4CC
:100200008021196059684FF6FF7CCFF2007C01EA2B
:100210000C0159601968114019604FF41F01996071
:10022000196841F4803119604FF6FE724FF0000EEC
:10023000013A4EF100011868800301D40029F7D17A
:100240001868800301D400BFFEE7586858605868FA
:100250005860586840F480605860586820F4403016
:100260005860586840F4403058600CF543005968B5
:1002700008405860586840F0006040F42010586012
:10028000186840F08070186018688001FCD55868C4
:1002900020F003005860586840F00200586000BF2A
:0802A00058680007FCD500BD01
:1002A80080B5012000904DF6F460C0F6000040F2E1
:1002B800F821C0F600010522012306F0A1FF052858
:1002C80014D8DFE800F00305080B0E11012008BD63
:1002D80008F054F80AE009F0C7F807E007F094FFBF
:1002E80004E009F06BFC01E008F03DF9002008BDCE
:1002F8008BDA00089CDA000888D10008ADDA00081B
:04030800F8D600081B
:0C030C00BEDA0008FED6000804D7000886
:0C031800F0D5000802D6000814D600083A
:1003240080B598B95202084611464FF40072012B69
:1003340002D106F037FA01E006F084FB1D2805D14E
:1003440006F057FF0028FBD1002008BD042008BD9B
:10035400F8B5022932D30E4605680446E869884296
:100364002CD9F2B1284611464FF0FF320BF0A6F912
:10037400B8B1F8BD012F21D02846314600220BF038
:100384009DF90028F5D16969E869821E914205D278
:1003940001316961297941F00101297187423E46A1
:1003A4000AD22046314605F052F90746013004BF0F
:1003B4000120F8BD002FDDD10020F8BD0220F8BDDA
:1003C4002DE9F8430E468146046891B105F03FF9E2
:1003D40002283CBF0120BDE8F883411C04BF4FF054
:1003E400FF30BDE8F883E1698842354606D2BDE8AE
:1003F400F8832569EDB1E1698D421AD2A04658F817
:10040400140F90B3B54219D1771C8F4228BF02272D
:100414004846394605F01BF9411CE8D040B3012891
:10042400E5D02569022D4BD3E069854228BF3546C6
:1004340004E0A04658F8140FB8B101252F4600BFB8
:10044400E0690137874228BF022701D3022D0CD36C
:100454004846394605F0FBF8411CC8D058B101287C
:1004640008BFBDE8F883AF42EAD10020BDE8F883B5
:10047400002F3546E2D0204639464FF0FF320BF0CC
:100484001DF928B926B1204631463A460BF016F933
:1004940030B101284FF0010008BF0238BDE8F883ED
:1004A40027616069E169023988429CBF0138C8F854
:1004B4000000207940F0010020713846BDE8F8833F
:0404C4003546BBE717
:1004C800F8B504461F20CFF6E070014201D00220A3
:1004D800F8BD0D4626682161A16829B17089B5EB80
:1004E800402F0ED2F0691DE03078032802D3F16A5C
:1004F8000029F3D13089B0EB551FE8D9F06A002103
:100508001AE04702204605F0A0F80146013004BF72
:100518000120F8BD0229DAD3F0698142D7D2ED1B58
:10052800BD42EFD28A1E0238824204D2306B7389F0
:1005380002FB030000E00020C4E905100028C6D033
:1005480000EB55206FF35F2571193831C4E90601B6
:040558000020F8BDCA
:10055C002DE9F0470546D0F8008000208875A86981
:10056C00002800F08D800C46E86A013036D04FF040
:10057C0000090026D8F80C10002000BF074631F8FF
:10058C00160020B301362FB9B0F5584F02D3B0F591
:10059C00604FF3D304EB090101F1160A40EA07405E
:1005AC0040F2B51100F0B0F8C9F1FF02FF2806D9EE
:1005BC00022A67D3010A0AF8011B022103E0002179
:1005CC0030B12AB101218AF800008944D2E74946AA
:1005DC00002F204608BF08440021817500202E21E1
:1005EC0000220B2A174698BF0B2700BF974212D048
:1005FC00EB699B5C0132202BF8D0052B08BFE5235F
:10060C00092A04D10B289EBF2718013079722718AC
:10061C0001307B72E5E7211800224A72A17D09BBEB
:10062C00B0B10020082100BF2218537A2E2B0BD01A
:10063C008BB1A3F14107192F07D8EF693F7B0F420C
:10064C0018BF203301E000BF102193750130EBE798
:10065C003F20A0750120211800208875E969097BCD
:10066C0001B96072ED69E87A00F03F00207205F183
:10067C001C000AF01BFE2060E88AE080288BA0801A
:08068C00BDE8F0870021A3E79F
:10069400F8B50D46044605F076FE08B10120F8BD14
:1006A400A81EE1690239884204D2216B678900FBE4
:1006B400071601E067890026666304F138052846B9
:1006C4004FF4007104F038F867B10027F21960782C
:1006D4002946012304F00EFB38B9608901378742AB
:1006E400F4D303E00020002700E06089381A18BF23
:0406F4000120F8BD2C
:1006F8000021002210F801C0D2B2530843EAC21206
:0C070800624401310B29F5D1D0B27047DA
:100714007F2801D8024619E00022B2EB104F15D110
:1007240040F2B513994211D100214BF2B872C0F6D0
:10073400000200BF32F81130834204D00131802915
:10074400F8D1002202E001F18000C2B290B27047F9
:100754000021B1EB104F18BF704700B541F67D5E24
:10076400B0F5805F38BF4FF0610E864503D980B283
:10077400BDE80040704746F2B652C0F600024BF6A0
:10078400BC0CC0F6000CB0F5805F38BF02F1040C5D
:100794002CBF012240F21A32D3B20EEB0301814284
:1007A40010D891B2FF2988BF00233CF813E0BEF1B2
:1007B400000FDCD08645DAD80CEB430101F1040CC0
:1007C4004A88E9E7120A082AD1D8DFE802F0050AC4
:1007D40010121416181A1C00A0EB0E003CF810009E
:1007E400C5E7A0EB0E0101F00101401ABFE7103884
:1007F400BDE72038BBE73038B9E71A38B7E7083027
:0C080400B5E75038B3E7A0F5E350B0E7CB
:1008100038B548F23400C4F2010000BF016811F09D
:10082000450FFBD0042011F0040404BF40F2FF7018
:10083000C0F2C00011F0010518BF01200BF036FD19
:100840001320002C08BF1D20002D18BF112038BD1B
:100850002DE9F04F83B0804600208DF80B008045D5
:1008600000F0F68015460E4642F6EB2AC2F2000A68
:100870001D218AF8001040F24879C2F2000940F2C6
:100880004477C2F20007C9F8000038600021002256
:1008900008F0F7FD0020002108F075FE08F0FDFECD
:1008A00008F0F9FF002001F0C7FC800100F1D280C0
:1008B00042F6E820C2F200000078022804BF4FF49C
:1008C0000075760A002D00F0C3801920B5F5006F81
:1008D00000F2C180691E294040F0BD80284606F024
:1008E0009BF8044610202946402208F09AFC00207C
:1008F0000BF0C4FC08F027FD102005F029FE1D2890
:1009000040F0A98040F2A27BC2F2000B4022BBF86B
:10091000000001040D2008F084FC00200BF0AEFC68
:1009200008F011FD0D2005F013FE1D2840F0938006
:10093000002001F081FCC00521D401944DF6F004A3
:10094000CFF6FF74BBF8000001040D20402208F030
:1009500068FC00200BF092FC08F0F5FC0D2005F07F
:10096000F7FD1D2877D1002001F066FC0134C00599
:1009700001D4002CE6D1002C019C00F0B08018209E
:100980003146402208F04DFC002600200BF076FC9A
:1009900008F0D9FC182005F0DBFD1D285BD140F2E2
:1009A000A070C2F20000C9F800500670F04329465A
:1009B000224608F066FD0020002108F0E4FD08F062
:1009C00002FE42F60830C2F200000068002845D05E
:1009D00001283DD140F21A6009F02BF870BB0025C8
:1009E0004FF4804009F025F810B3D9F80000401BFF
:1009F000202811D210F0030118BF012111EB900241
:100A000016D080084718960058F8040B0BF042FCEB
:100A1000013FF9D135440BE0002600BF58F826000D
:100A20000BF038FC0136082EF8D1203508F12008EB
:100A300040F21A6008F0FDFF0028D1D0022008F033
:100A4000F8FF00284DD002200BF030FC122002E00D
:100A5000192000E0062003B0BDE8F08F40F21A3004
:100A60000BF02AFC4046294606F0A7F908F057FE8D
:100A70004DF6F005CFF6FF7540F20048C4F20208CB
:100A80004046032102220BF01FFC38B91C2001351F
:100A9000F6D3E0E79AF800001D2802D13868002854
:100AA000F8D09AF800001D2824D140F2FF70C0F25F
:100AB000C0000BF0FBFB0DF10B0000F035F81D281A
:100AC000C9D10DF10B089DF80B0000F0FE000628BF
:100AD0001CD1404600F028F81D28F4D0BBE71C20AC
:100AE000B9E7082008F0A5FF38B108200BF0DEFBBD
:100AF0001420B0E79AF80000ADE7102008F099FF45
:100B000030B110200BF0D2FB1520A4E71D20A2E786
:100B10004FF4007008F08DFF0028C6D04FF400702D
:080B20000BF0C4FB172096E75F
:100B280010B582B000210191009140F2A271C2F289
:100B380000010446088801040D20402208F06DFBDE
:100B480000200BF097FB08F0FAFB48F23400C4F2DF
:100B5800010000BF01680191019911F0450FF9D01A
:100B68000198C00723D10198400725D408F075FCE7
:100B7800019001980D2824D140F2FF70C0F2C00006
:100B88000BF090FB002001F053FB00900098C0F39D
:100B98004320207000984EF20801CFF6F951084220
:100BA80011D0009802B0BDE8104006F05ABD0120EF
:100BB8000BF078FB112007E004200BF073FB1320E7
:0C0BC80002E0082000E01D2002B010BD7B
:100BD40038B5054645F60004C4F20004204640F248
:100BE40001610AF0C1FF0028F8D1204606F0F9FFA0
:100BF40020464FF4A0610AF0B7FF0028F8D0204641
:100C040078216FF0010206F066FE00BF204640F234
:100C140001510AF0A9FF0028F8D0204640F2015102
:100C24000AF0AAFF204640F207510AF09DFF00286F
:100C3400F8D0204600210AF095FF00BF204640F27C
:100C440007510AF091FF0028F8D0204629460AF0FF
:100C540089FF00BF204640F207510AF085FF0028B3
:100C6400F8D000BF204640F202510AF07DFF002870
:0C0C7400F8D02046BDE8384007F0C3BAB5
:100C800038B5054645F60004C4F20004204640F29B
:100C900001610AF06BFF0028F8D1204606F0A3FF9F
:100CA00020464FF4A0610AF061FF0028F8D02046EA
:100CB00078216FF0010206F010FE00BF204640F2DE
:100CC00001510AF053FF0028F8D0204640F20151AC
:100CD0000AF054FF204640F207510AF047FF00286F
:100CE000F8D0204640210AF03FFF00BF204640F2E6
:100CF00007510AF03BFF0028F8D0204629460AF0A9
:100D000033FF00BF204640F207510AF02FFF0028B2
:100D1000F8D000BF204640F202510AF027FF002819
:0C0D2000F8D02046BDE8384007F06DBA5E
:100D2C0038B50024A4F15000C0B2FFF74DFF0025E8
:100D3C000020FFF749FF1020FFF746FF0020FFF7C8
:100D4C0099FF681C45B2002DF8DA601CE1B2072946
:080D5C00044628BF38BDE5E79D
:100D64002DE9F8431E4617460D46044640B20028B6
:100D740044BF02350024E9B2204607F050FAA7F137
:100D84002000C0B2102E20D142F61C38C2F2000856
:100D940008EB00164FEA0019002700BFF05DFFF7CB
:100DA4006DFF0137082FF9D1681CC1B2204607F046
:100DB40036FA49F0080008EB00040025605DFFF7EF
:100DC4005DFF0135082DF9D10EE000EB800043F200
:100DD4000C11C2F200010C18002500BF605DFFF782
:0C0DE4004DFF0135052DF9D1BDE8F88365
:100DF0002DE9F843984615460E460746022000EBBB
:100E000053090024E0B22A5C0A2A0DD082B1F8B25C
:100E1000F1B24346FFF7A6FF4F44F8B2782884BFEB
:100E20000027013602E000BF013600270134E9E760
:040E3000BDE8F8839E
:100E34002DE9F843904638B1884217D200EB800080
:100E44008000B0FBF1F512E042F6E620C2F20000A9
:100E5400002101704DF20A72C0F6000200204146E2
:100E6400082301B0BDE8F043FFF7C0BF142542F6E4
:100E7400E624C2F20004EFB22078874298BFBDE8AE
:100E8400F883461C4DF20C79C0F60009F0B2132821
:100E940006D1722041464A460823FFF7A7FF08E01F
:100EA40006EB46004000C0B241462A220823FFF761
:100EB40057FF0136F0B2B842E8D92570BDE8F8838F
:100EC4002DE9F04FADF5617D8946014642F6AA1A37
:100ED400C2F2000A504603F09FFB8FA800F10901FB
:100EE4001630CDE90201D5AFFFF71EFF0020002127
:100EF4004A460823FFF77AFF42F6E120C2F20000D7
:100F04000121017042F6E720C2F200000170384668
:100F140051460AF09BFA40B1FFF706FF4DF6003048
:100F2400C0F6000001210AF0BBFE50460AF064FA44
:100F34000026002538468FA904F0EFFF002800F0B2
:100F44008580002742F6EC2BC2F2000B04950025A5
:100F54000095484659463246012306F053F9652860
:100F640004D1002F4FF00107F2D13AE0441E072CC0
:100F7400C0F0A680642840F0BB8042F6E720C2F2AD
:100F8400000000780228E3D342F6E721C2F2000110
:100F940001380870C0B2C0EBC00040F2AA74C2F2BB
:100FA400000404EB8010A0F5E071DBF8000003F00E
:100FB40033FBA4F5C078012442F6E721C2F2000114
:100FC4005BF824000978C1EBC10108EB811103F03F
:100FD40023FB08F14008013400270726072CEBD136
:100FE400B5E742F6E722C2F200021078411C42F64D
:100FF400E120C2F2000011700078C9B2814254D8D5
:10100400C1EBC100C11F0026049DA9429FDA00BFA5
:101014005BF8260040F2AA72C2F2000202EB8111D0
:1010240003F0FAFAB01F0ED042F6E721C2F2000133
:1010340001360978C1EBC1028118901907380127DC
:10104400A842E5DB83E70027072680E79DF85202E4
:1010540048B39DF845020028DDE902B4214608BFE3
:10106400594640F2AA70C2F2000000EB85184046CF
:1010740003F0D2FA42F6EC20C2F20000414650F8E6
:10108400260003F0C9FA4EF23C00C0F600005946AF
:1010940022460CF023F801360135072E7FF44AAFBF
:1010A400002707264EE701274CE742F6E121C2F26A
:1010B4000001013008700026D5AF049D3AE700BF57
:1010C4005BF8241005A8002203F0DEFF58B3504655
:1010D40003F0BEFA2F212AF800105BF824105046C2
:1010E40009F0DCFFD5AF384604F087FEFCE600BF0C
:1010F400D5AF68B93F2000BF1AF800105C2904D0AE
:101104002F2902D00138F7D8EDE70AF80050EAE7B2
:101114004EF24C00C0F6000001210AF0C1FD0DF5AD
:10112400617DBDE8F08F05A804F02FFC504603F064
:101134008FFA2F212AF800105BF82410504609F08A
:04114400ADFFECE728
:1011480040F24C71C2F200010A6810440A688242F7
:04115800FCD370470D
:10115C00BFF34F8F4EF60C50CEF200000421C0F2BC
:10116C00FA51026802F4E06211430160BFF34F8F41
:04117C0000BFFDE7CC
:10118000002800F05E8000BF00BF00BF00BF00BFAE
:1011900000BF00BF00BF00BF00BF00BF00BF00BF57
:1011A00000BF00BF00BF00BF00BF00BF00BF00BF47
:1011B00000BF00BF00BF00BF00BF00BF00BF00BF37
:1011C00000BF00BF00BF00BF00BF00BF00BF00BF27
:1011D00000BF00BF00BF00BF00BF00BF00BF00BF17
:1011E00000BF00BF00BF00BF00BF00BF00BF00BF07
:1011F00000BF00BF00BF00BF00BF00BF00BF00BFF7
:1012000000BF00BF00BF00BF00BF00BF00BF00BFE6
:1012100000BF00BF00BF00BF00BF00BF00BF00BFD6
:1012200000BF00BF00BF00BF00BF00BF00BF00BFC6
:1012300000BF00BF00BF00BF00BF00BF01387FF488
:04124000A3AF7047A1
:1012440070B584B0FFF770FD42F6D020C2F2000002
:101254004DF2DE11C0F60001032209F0FAFE002867
:1012640000F0A5804DF20E72C0F6000200200021AD
:101274000823FFF7BBFD01244DF2E112C0F6000282
:10128400022001210823FFF7B1FD42F6BA22C2F27F
:1012940000022D2001210823FFF7A8FD4DF612328C
:1012A400C0F60002022002210823FFF79FFD40F24E
:1012B4007876C2F200064DF61B35C0F6000530689C
:1012C400092800F2808004FA00F140F20132114250
:1012D4002C4600F07880FC2804BF4DF2E814C0F6D8
:1012E40000043720022122460823FFF77FFD4DF238
:1012F400EF12C0F60002022003210823FFF776FD57
:1013040040F2A470C2F20000B0F9000007289EBFAA
:1013140042F21821C0F6000151F820404120032177
:1013240022460823FFF762FD4EF26402C0F6000273
:10133400022004210823FFF759FD0020ADF80C001A
:10134400CDE9010040F27C70C2F2000001AC0268F9
:101354004DF2FA11C0F60001204609F0F0FE2D20EE
:10136400042122460823FFF741FD4EF26C02C0F629
:101374000002022005210823FFF738FD40F25070D7
:10138400C2F200000068042825D84EF27802C0F6A4
:101394000002DFE800F00333252A2F003068062816
:1013A40004BF4DF64335C0F600052A4626E04DF24B
:1013B4003472C0F6000200200221082304B0BDE804
:1013C4007040FFF713BD411E03293BD24DF6203474
:1013D400C0F600047FE74DF61B32C0F600020DE0B4
:1013E4004EF27C02C0F6000208E04DF63932C0F637
:1013F400000203E04DF22272C0F6000246200521ED
:101404000823FFF7F3FC4DF2FD12C0F600020220A0
:1014140006210823FFF7EAFC42F6D022C2F20002BA
:10142400412006210823FFF7E1FC4EF28002C0F6BA
:101434000002002007210823FFF7D8FC05F0D2FEA4
:1014440004B070BD411F022904D24DF62534C0F604
:10145400000440E7A0F10B01032904D24DF21C74EF
:10146400C0F6000437E7A0F10F01052904D24DF6B8
:101474002A34C0F600042EE7A0F11501032904D292
:101484004DF62F34C0F6000425E7A0F11901052913
:1014940004D24DF63434C0F600041CE740F2351192
:0814A4008842F6D0002416E78F
:1014AC002DE9F04FADF50B7D42F60E2AC2F2000A83
:1014BC0042F6BA2BC2F2000B5046594603F0A8F87C
:1014CC0003F0C2F844F22E71C0F2420140F2807770
:1014DC00C2F200074AF8001038680AF0F7FE4DF225
:1014EC004270C0F6000009F083FF3B6842F6EA1533
:1014FC00C2F200054DF64831C0F6000128465A46A6
:10150C0009F019FE284606F025F8284609F070FF68
:10151C00FFF706FC4DF20822C0F600020020002165
:10152C000823FFF75FFC042001212A460823FFF75C
:10153C0059FC38680130386008F047FB01A8514667
:10154C000A2203F09DFD30B14DF24470C0F600004C
:10155C0001210AF0A1FB40F27C75C2F200050322C6
:10156C0028684FEA803A00205146FFF75DFC286856
:10157C0002286CDB012741F60406C4F2010642F294
:10158C00AA75C2F200050DF10408E9464FF0000BF4
:10159C00002400BF4FF03330306001200AF0E8FB2C
:1015AC0040F27870C2F200000068052804DBF9B242
:1015BC004FF404500FE000BF4FF4C04000210AF07C
:1015CC0005FCC7F347114FF480400AF0FFFB07F00E
:1015DC001F014FF400500AF0F9FB4FF0443030601B
:1015EC00B8B2012888BF4FF4804400BF4FF0FF30E1
:1015FC0084421FDD002600BFA01980B207F051F80D
:10160C00A8550136B6F5007FF6D100200090404673
:10161C0029464FF400724B4604F026FB0BF5007B79
:10162C00584651460322FFF7FFFB04F5007004B245
:10163C00DCE700BF40F27C70C2F2000001370068AA
:10164C00B9B2884241F60406C4F20106A2DC01A834
:0C165C0004F097F90DF50B7DBDE8F08F50
:101668002DE9F04FADF50B7D01A842F6AA11C2F2A3
:101678000001012203F006FD40B14EF29000C0F6D1
:10168800000001210AF00AFB00208BE041F6040467
:10169800C4F201044FF04430206040F24077C2F2B7
:1016A8000007002038604FF49A7006F0FCFF40F203
:1016B800A670C2F20000008800286FD04FF03330C7
:1016C800206040F27870C2F200000068042804DC50
:1016D8004FF4C04001210AF07BFB00200A210AF0E8
:1016E80077FB40F25470C2F20000006801284BDB1F
:1016F80000260DF1040842F2AA79C2F20009EB466D
:101708004FF033302060F1B24FF480400AF060FBB4
:101718004FF04430206040F2A670C2F2000000880A
:10172800B0F5204F23D34FF4204A5446404649464B
:1017380040225B4604F036F9002500BF601980B2EC
:101748000AF0A0FB19F8051088421EBF386801305E
:1017580038600135402DF1D10AF1400440F2A670FD
:10176800C2F200001FFA84FA00888245DED940F2EE
:101778005470C2F2000001360068F1B2884241F6A6
:101788000404C4F20104BBDC4FF0333020600020B5
:1017980000210AF01DFB4FF04430206001A804F03E
:0C17A800F2F838680DF50B7DBDE8F08FFD
:1017B4002DE9F04FADF5217D0E46054642F6AA18F7
:1017C400C2F20008002088F800004DF24277C0F60B
:1017D4000007384609F010FE4DF6B531C0F6000199
:1017E4003846FFF76DFBFFF79FFA06A8402102F089
:1017F400A3FF17A84146012203F046FC48B14DF669
:101804000A42C0F60002002000210823FFF7EEFA86
:1018140040E304950DF15C08404640F2471104F0A2
:1018240076F940F27871C2F2000116AF4046012207
:101834003B4604F0B9F840F2A475C2F200054046F4
:10184400294601223B4604F0AFF84046002104F04B
:101854005EF928880221082838BF814040F27C7054
:10186400C2F2000041F604040160C4F201044FF026
:10187400333020604FF4405000210AF0ABFA4FF4AB
:10188400005000210AF0A6FA6420FFF75BFC40F246
:101894005550F0210AF09EFA6420FFF753FC40F201
:1018A4005550AA210AF096FA0120FFF74BFC40F2AA
:1018B400AA2055210AF08EFA0120FFF743FC40F2DA
:1018C400555090210AF086FA0120FFF73BFC4FF0B7
:1018D40044302060002006F0E8FE8046012006F037
:1018E400E4FE40EA082842F6CB20C2F200004DF69E
:1018F4007C31C0F60001424609F021FCB8F5EA7FCC
:1019040017DD40F2D510804527D040F2AD40804528
:101914002ED040F2D440804540F0C78240F27C7023
:10192400C2F200004DF6C231026806A8C0F60001FA
:1019340033E040F24110804525D040F2AD1080459F
:1019440040F0B38240F27C70C2F200004EF2B80163
:10195400026806A8C0F600011FE040F27C70C2F2E3
:1019640000004EF2E801026806A8C0F6000114E087
:1019740040F27C70C2F200004EF2D001026806A868
:10198400C0F6000109E040F27C70C2F200004EF2A1
:10199400A001026806A8C0F6000109F0D0FB06AA5F
:1019A400002000210823FFF721FA4FF03330206094
:1019B40040F25550F0210AF00DFA6420FFF7C2FB03
:1019C400002E00F099804DF6EC32C0F600020020A3
:1019D40003210823FFF70AFA40F25550AA210AF01E
:1019E400F9F940F2AA2055210AF0F4F940F25550D1
:1019F40080210AF0EFF940F25550AA210AF0EAF9E1
:101A040040F2AA2055210AF0E5F940F25550102180
:101A14000AF0E0F94FF044302060002006F045FE63
:101A240040B2002806D400BF002006F03EFE40B2BB
:101A34000028F9DA4DF22D22C0F60002002004211C
:101A44000823FFF7D3F940F27C70C2F2000000686B
:101A5400012851DB002542F2AA79C2F2000947F6B7
:101A6400FF5A4DF2A878C0F6000817AE4DF2B277CF
:101A7400C0F6000701200AF07FF94FF033302060F0
:101A84000595E9B24FF400500AF0A4F94FF0443040
:101A940020604FF4804B00BF002500BF0BEB050016
:101AA40080B206F002FE09F805000135B5F5007FA5
:101AB400F4D1002519F80500FF280CD000200521D9
:101AC40042460823FFF792F9304603F05EFF38469A
:101AD40001210AF0E5F80135B5F5007FEAD1D345D7
:101AE4000BF5007BD8D3059D40F27C70C2F2000058
:101AF400013500688542BDDB0498052800F0A38009
:101B0400032840F028814DF23C22C0F60002002058
:101B140005210823FFF76AF94FF0333B40F27C7844
:101B2400C2F20008C4F800B0D8F800008103002015
:101B340002910622FFF77CF9D8F800000128C0F2D0
:101B44000A81002743F6FF70039040F60046C4F272
:101B5400010642F2AA78C2F200084FF04439802507
:101B6400BA460020059000BF02200AF005F9F9B238
:101B74004FF404500AF02EF90197002F0399059FA2
:101B84001CBF47F6FF714FF48047B8B2039100BF02
:101B940088424DD8CDF810A017A841464FF40072E2
:101BA40016AB03F001FF0597BFB24FF0000A00BF68
:101BB40040F25550AA210AF00DF940F2AA2055210D
:101BC4000AF008F940F25550A0210AF003F918F878
:101BD4000A100AEB07000AF0FDF8C4F8009030463A
:101BE4004FF4804109F02EFF18F80A0000F080003D
:101BF400616805EA11218142FAD130464FF48041EF
:101C040009F01EFFC4F800B00AF1010ABAF5007F1A
:101C1400CED1DDF810A002990AF5007A50460622CA
:101C2400FFF706F9059F039907F50077B8B2AFE708
:101C34000597019F40F27C70C2F2000001370068F2
:101C4400874291DB87E04DF24F22C0F6000200206C
:101C540005210823FFF7CAF84FF0333540F27C78AA
:101C6400C2F200082560D8F8000081030020049126
:101C74000622FFF7DDF8D8F8000001286BDB002608
:101C840040F60048C4F2010842F2AA77C2F2000703
:101C94004FF044394FF0800A0020059002200AF0EA
:101CA4006BF80396F1B24FF400500AF093F84FF436
:101CB400804B584600210AF08DF800BF17A839461A
:101CC4004FF4007216AB03F06FFE002640F255503D
:101CD400AA210AF07FF840F2AA2055210AF07AF8E6
:101CE40040F25550A0210AF075F8B95D06EB0B00DF
:101CF4000AF070F8C4F8009040464FF4804109F0AF
:101D0400A1FEB85D00F0800061680AEA11218142F9
:101D1400FAD140464FF4804109F092FE2560013625
:101D2400B6F5007FD2D1DDE9041000F5007005900E
:101D34000622FFF77DF80BF5007047F6FF518B453F
:101D44008346BBD3039E40F27C70C2F2000001368E
:101D540000688642A2DB4FF044302060FEF7E4FFC7
:101D64004FF000084DF6FD32C0F6000200200021BD
:101D74000823FFF73BF817A8002103F0C8FE40F240
:101D84004077C2F2000740F27C70C2F20000C7F84C
:101D940000800068022862DB01264FF0FF3942F21E
:101DA400AA75C2F200050DF1580B00BF4FF0333095
:101DB400206040F27870C2F200000068052803DB5E
:101DC400F1B24FF404500EE04FF4C04000210AF089
:101DD40001F8C6F347114FF4804009F0FBFF06F009
:101DE4001F014FF4005009F0F5FF4FF0443020601C
:101DF400022009F0C1FF0596B0B2012888BF4FF454
:101E04008048C84521DD17AE304629464FF400729C
:101E14005B4603F0C9FD4FF0000A00BF08EB0A005F
:101E240080B206F042FC15F80A1088421EBF3868DA
:101E3400013038600AF1010ABAF5007FEED108F5E5
:101E440000700FFA80F8C845DEDC40F27C70C2F204
:101E54000000059E00680136B1B28842A6DC17A8CE
:101E640003F093FD3A68CAB10DF118084DF2C07140
:101E7400C0F60001404609F062F900200221424602
:101E84000823FEF7B3FF4DF2D270C0F60000012123
:101E940009F006FF0DF5217DBDE8F08F4EF200122A
:101EA400C0F6000200200221AFE44DF22222C0F667
:101EB4000002002000210823FEF798FF42F6CB22FF
:101EC400C2F200023C2000210823FEF78FFF17A86E
:101ED40003F05BFD4DF6DB30C0F60000012109F094
:041EE400DFFE5CE5DC
:101EE8002DE9F041D8B0012400944DF65F40C0F6CA
:101EF800000042F2C411C0F600010622012305F0D9
:101F08007FF90546FEF70EFF062D00F2EE80DFE8AA
:101F180015F0FA00070009000C0058007400B10021
:101F2800032000E00520012148E003200121FFF7FC
:101F38003DFC4DF2E024C0F60004002007212246B3
:101F48000823FEF751FF05F04BF9FEF7EBFE4DF6BF
:101F58003002C0F60002002000210823FEF744FFEB
:101F68004DF2F322C0F60002002001210823FEF7FB
:101F78003BFF4DF20632C0F6000200200221082382
:101F8800FEF732FF4DF66C42C0F600020020032136
:101F98000823FEF729FF4DF64202C0F60002002092
:101FA80004210823FEF720FF0020072122460823EA
:101FB800FEF71AFF05F014F903200021FFF7F6FBDE
:101FC80093E04DF24270C0F600004DF6B531C0F610
:101FD8000001FEF773FFFEF7A5FE0AF041F805F0D1
:101FE80003FE002840F08180FEF79CFE4DF650026B
:101FF800C0F600020020002174E04DF24270C0F6E5
:1020080000004DF6B531C0F60001FEF757FFFEF7A8
:1020180089FE0AF025F805F0E7FD30B94EF21810F0
:10202800C0F60000012109F039FE05F05FFB40F21F
:10203800A670C2F200000088F8B1FEF773FE4EF2F7
:102048003412C0F60002002000210823FEF7CCFE5F
:1020580042F6AA10C2F200002F210AF0E1FF42F670
:102068000E24C2F2000480B1411C42F60E20C2F2D6
:10207800000012E006F077FA37E04DF69F40C0F610
:102088000000002109F00AFE2FE042F60E20C2F2FD
:10209800000042F6AA11C2F2000102F0BBFA601E6B
:1020A80010F8011F19B12E29FAD10021017042F64A
:1020B800AA15C2F200054DF68141C0F6000142F6AC
:1020C8000E24C2F200042846224609F036F812A966
:1020D800284609F05BFAD0B14DF69602C0F6000228
:1020E800002001210823FEF77FFE00244DF2E022A4
:1020F800C0F60002002007210823FEF775FE05F050
:102108006FF806F030FA204658B0BDE8F0810AF0C2
:10211800DFF840F28071C2F2000100280860DBD4C9
:10212800054642F6AA16C2F200064DF66A08C0F63F
:10213800000812AF00943046414622462B4608F06C
:10214800FCFF3046394609F021FA20B1002DA5F1EF
:102158000105EFDCC0E702AC2046402102F0EAFAB4
:102168004DF68001C0F6000120462A4608F0E5FF3A
:102178000020012122460823FEF736FE05F09AFCCE
:10218800FFF76EFA98B1024602AC4DF68E41C0F6E2
:102198000001204608F0D1FF002002212246082332
:1021A800FEF722FE4DF61E00C0F6000069E74EF26B
:0C21B8004412C0F600020020022193E750
:1021C40070E1000880E1000824D30008B0DC0008B6
:0821D400ACD80008BED80008D9
:1021DC00B9DC0008C4D8000833D30008CED80008F6
:1021EC0004000000080000001000000020000000A7
:0C21FC0040000000800000000001000016
:1022080001000000040000001000000008000000A9
:1022180039DB00083EDB000822D7000828D7000871
:102228002ED7000858E000085CE0000860E00008CD
:10223800032884BF00207047DFE800F00214080E6E
:1022480048F21400C4F201000068704748F2140014
:10225800C4F201008068704748F21400C4F201001B
:10226800C068704748F21400C4F201004068704723
:1022780040F20042C4F20202904202D1052900D382
:10228800FEE701EB810200EB82028900936823F0EC
:102298000103936000239360D360136153610F229D
:0C22A80002FA01F14268114341607047E6
:1022B40040F20043C4F20203984202D1052900D33C
:1022C400FEE701EB810100EB810011680161916877
:1022D4004161118AC1608168536821F47C511943BA
:1022E400D36819435369194381608168137E21F0CF
:1022F4004001012B08BF403181608168537E21F089
:102304008001012B08BF803181608168927E21F0B9
:0C2314001001002A18BF103181607047D2
:1023200040F20042C4F20202904202D1052900D3D9
:10233000FEE701EB810100EB8100816821F02001C3
:042340008160704701
:1023440040F20042C4F20202904202D1052900D3B5
:10235400FEE701EB810100EB8100816841F001019E
:0423640081607047DD
:1023680040F20042C4F20202904202D1052900D391
:10237800FEE701EB810100EB8100816821F001019A
:0423880081607047B9
:10238C002DE9F04FADF50D7DFEF7CAFC002442F2AD
:10239C00AA77C2F2000700BF20460AF057F838535C
:1023AC000234C02CF8D10024042000BF395C214435
:1023BC008CB20130A028F9D14DF6C240C0F6000015
:1023CC0021460AF087FE44F61B3084422DD140F2A0
:1023DC008C75C2F20005002042F6DF2BC2F2000B16
:1023EC00286042F6D521C2F200018BF8000008717A
:1023FC00D7F8AC200A608DF830028B904DF60A109D
:10240C00C0F6000008F0F4FF01A84EF2A011C0F6CF
:10241C000001012202F034FE40B34EF2A810C0F6C7
:10242C000000002109F038FC78E04EF29010C0F664
:10243C000000002109F030FC42F6BA20C2F2000084
:10244C005221818045F24521C4F6527101604DF64E
:10245C00D402C0F60002002001210823FEF7C2FCC2
:10246C000DF50D7DBDE8F04F04F0B8BE049806994B
:10247C00814250D001AC0DF50B7A6E4642F6D52850
:10248C00C2F200080DF2332920465146042233468D
:10249C0003F086FAE0BB5046414602F099F80699E3
:1024AC0020B10731204603F02EFB2CE001312046F1
:1024BC0003F029FB204649460122334603F070FA0B
:1024CC009DF83302303828602046494601223346B5
:1024DC0003F066FA28689DF8331200EB800001EBDC
:1024EC004000303828600698411C204603F00BFB56
:1024FC00204649460122334603F052FA9DF8330236
:10250C0030388BF80000049806998142BCD102E067
:10251C0001A803F036FA01A803F033FA002042F6C2
:10252C00BA21C2F2000100223B1893F8A030A3F1AB
:10253C0030060A2E02D20E2A06D907E0A3F1410674
:10254C00392E03D80F2A01D28B54013201300C28BA
:10255C00EAD197F8BC0042F6E021C2F2000197F8EC
:10256C00BD20087042F6D020C2F200004DF6D341D7
:10257C00C0F6000108F0DFFD002100207A180131BF
:10258C0092F8A020801A1D29F8D1E730C2B242F689
:10259C00DA24C2F200044DF6D341C0F60001204605
:1025AC0008F0C9FD42F6D021C2F20001204602F02B
:1025BC000FF818B34DF6D842C0F6000200200021E7
:1025CC000823FEF70FFC42F6DA22C2F200020020CA
:1025DC003C210823FEF706FC4EF2B810C0F60000B2
:1025EC00002109F059FB4DF23E32C0F600020020EA
:1025FC0007210823FEF7F6FB04F0F0FD0DF50D7D29
:04260C00BDE8F08FA6
:102610002DE9F043ADF50B7D15460C4688B142F629
:10262000AA10C2F20000002101704DF60A10C0F697
:1026300000004DF60751C0F60001FEF743FCFEF71F
:1026400075FB01A842F6AA11C2F20001012202F0B4
:102650001DFD38B14DF29130C0F60000002109F0A7
:1026600021FB45E04EF2E812C0F6000200200121F5
:102670000823FEF7BDFB1DB101A8294603F049FA66
:1026800009F090FF14B300250DF1040842F2AA7777
:10269000C2F20007E94600BF404639464FF40072D7
:1026A0004B4603F083F90026B95DA81909F0CCFF69
:1026B0000136B6F5007FF7D12846214606220223CF
:1026C00009F028FB05F50075A542E5D301A803F044
:1026D0005EF9012001210622022309F01BFB4DF6C1
:1026E0002012C0F60002002003210823FEF780FB21
:0826F0000DF50B7DBDE8F08340
:1026F8002DE9F047ADF50C7D0E46824602A842F65C
:10270800AA11C2F20001012202F0BCFC40B14DF650
:102718001850C0F600000024002109F0BFFA36E086
:1027280040F24075C2F20005002028601EB102A8E0
:10273800314603F0EAF909F031FFBAF1000F22D06F
:1027480000270DF1080842F2AA76C2F200060DF140
:10275800040900BF404631464FF400724B4603F06F
:1027680021F90024381909F02FFF315D88421EBF76
:102778002868013028600134B4F5007FF2D107F5EC
:1027880000775745E6D302A803F0FDF82C682046E9
:082798000DF50C7DBDE8F08792
:1027A0002DE9F043ADF50B7D044642F6AA15C2F2C1
:1027B0000005002028704DF60A10C0F600004EF209
:1027C000F811C0F60001FEF77DFB4DF62A12C0F6A7
:1027D0000002002000210823FEF70AFB01A8294679
:1027E000012202F053FC80B14DF2B332C0F6000278
:1027F000142000210823FEF7FBFA4DF29130C0F6B9
:102800000000002109F04EFA2AE0ECB12501002673
:102810000DF1040842F2AA79C2F200096F4600BF26
:10282000404649464FF400723B4603F0BFF872B68B
:10283000B0B2214606F040F962B6C820FEF7A0FC0F
:102840004036B0B28542EBD801A803F0A0F84DF6AF
:102850001A12C0F60002002001210823FEF7C8FA70
:082860000DF50B7DBDE8F083CE
:102868002DE9F047824640F60404C4F2010404F559
:102878007F7840464FF4204109F0E0F841F20040EB
:10288800C4F201004FF0333141600168C3F23331C3
:102898000160216843F2333262F30F012160C1689D
:1028A8004FF6F0729143C160A06820F47060A06098
:1028B80041F60400C4F201004FF044310160404683
:1028C800802109F0BDF840464FF4804109F0B8F87E
:1028D8000126BAF1000F22D04FF0000942F2AA7483
:1028E800C2F20004002700BF002500BF781909F0D4
:1028F800F1FE60550135B5F5007FF7D1002000BF26
:10290800215CFF291CBF57464E4604D1B0F5FF7F16
:1029180000F10100F4D907F500775745E4D34046A4
:0C292800802109F08BF83046BDE8F087F4
:102934002DE9F047ADF50C7D17460D46044640F6EB
:102944000406C4F2010606F57F7840464FF42041A0
:1029540009F076F841F20040C4F201004FF033313F
:1029640041600168C3F233310160316843F23332AC
:1029740062F30F013160C1684FF6F0729143002C8D
:10298400C160B06820F47060B06041F60400C4F225
:1029940001004FF04431016043D042F60E24C2F2EC
:1029A400000442F6BA29C2F200092046494601F061
:1029B40033FE01F04DFE46F22E61C6F26C11215039
:1029C40020440021017109F085FC40F28076C2F2B6
:1029D40000060346306042F6EA14C2F200044DF2E7
:1029E4008231C0F6000120464A4608F0A8FB204682
:1029F40004F0B4FD204608F0FFFC4EF2C812C0F605
:102A04000002002000210823FEF7F0F90020012134
:102A140022460823FEF7EAF930680130306007F0F7
:102A2400D8F802A842F60E21C2F200010A2202F0EE
:102A34002BFB30B14DF60C10C0F60000012109F05B
:102A44002FF91FB102A8394603F061F840468021EE
:102A540008F0F8FF40464FF4804108F0F3FF2DB32F
:102A6400002642F2AA79C2F2000902AF0DF1040A6B
:102A7400012009F081F9304629461422032309F084
:102A840047F90024301909F027FE09F8040001343D
:102A9400B4F5007FF6D1384649464FF400725346E8
:102AA40003F0E6F806F50076AE42E1D301200121F9
:102AB4001422032309F02CF902A802F066FF404611
:102AC400802108F0BDFF4DF63C12C0F60002142030
:102AD40004210823FEF78AF90DF50C7DBDE8F08783
:102AE40070B5054641F60406C4F201064FF04430C1
:102AF400306040F60044C4F2010420464FF48041A3
:102B040008F0A0FF42F2AA70C2F20000405D00BFCC
:102B14007168C1F307218842FAD120464FF48041FD
:0C2B240008F08EFF4FF03330306070BDC1
:102B30002DE9F04FADF5137D0E46814640F6004479
:102B4000C4F2010420464FF4204108F07BFF41F21B
:102B50000040C4F201004FF0333141600168C3F21C
:102B6000333101604FF60440CFF6FF7043F233314A
:102B7000225861F30F02225041F60400C4F2010012
:102B80004FF04431016020464FF4814108F05CFF72
:102B90004DF64812C0F60002002002210823FEF77D
:102BA00027F909A842F6AA11C2F20001012202F097
:102BB0006DFA30B14DF2A430C0F60000012109F0E9
:102BC00071F81EB109A8314602F0A3FFB9F1000F58
:102BD00023D000270DF1240A42F2AA74C2F20004A5
:102BE0000DF1040B002600BF504621464FF4007241
:102BF0005B4602F0DBFE002514F80580781909F029
:102C00006DFD804518BF01360135B5F5007FF3D164
:102C100007F500774F45E7D300E0002609A802F04A
:102C2000B6FE40F60040C4F20100802108F00AFF21
:102C30008EB101AC2046202101F080FD4EF218211A
:102C4000C0F600012046324608F07BFA20460021FB
:102C500009F028F808E04DF2BA32C0F60002372039
:102C600002210823FEF7C4F80DF5137DBDE8F08FAF
:102C700070B540F28C76C2F200060446306850B15E
:102C8000002500BF28464FF6FF7107F0F5FD2544EB
:082C900030688542F6D370BDE7
:102C98002DE9F04140F28877C2F200073868F0B1B8
:102CA80000254FF6FF764FF6FD78C0F2010800BF09
:102CB800012009F05FF86FF0010400BF2819023005
:102CC80009F0C6FBB0421CBF0020BDE8F081023409
:102CD8004445F3D905F5003538688542E8D3012025
:042CE800BDE8F081D2
:102CEC00F8B540F28877C2F200076FF07F4438687D
:102CFC00A04238BF0446002547F6FF76C0F2010615
:102D0C002846602107F0B2FD2846D02107F0AEFD21
:102D1C002846202107F0AAFD2846D02107F0A6FD61
:102D2C00284609F093FB0006FAD5012009F020F89B
:102D3C00284621464622022308F0E6FF05F500400E
:102D4C00B5420546DCD3B4F5003F24D94FF4003529
:102D5C002846602107F08AFD2846D02107F086FD21
:102D6C002846202107F082FD2846D02107F07EFD61
:102D7C00284609F06BFB0006FAD5012008F0F8FF95
:102D8C00284621464622022308F0BEFF701900F5A2
:102D9C000045A542DCD3012001214622022308F084
:102DAC00B3FF3868B0F1807F38BFF8BD4FF0807446
:102DBC002046602107F05AFD2046D02107F056FD31
:102DCC002046202107F052FD2046D02107F04EFD71
:102DDC00204609F03BFB0006FAD5022008F0C8FF9C
:102DEC00301900F50040B4F1FE7F0446E0D34FF0FB
:102DFC00FF7406F1FF7500BF2046602107F036FD19
:102E0C002046D02107F032FD2046202107F02EFD70
:102E1C002046D02107F02AFD204609F017FB0006BA
:102E2C00FAD5022008F0A4FF04F50040AC42044699
:042E3C00E2D3F8BD28
:102E400038B500244FF6FF75C0F2FE0540F6AA2003
:102E5000A92107F011FD40F25550562107F00CFD55
:102E600040F6AA20802107F007FD40F6AA20A921FC
:102E700007F002FD40F25550562107F0FDFC2046B8
:102E8000302107F0F9FC012008F078FF20466FF0B0
:102E90007F414422022308F03DFF00BF204607F097
:102EA00072FD0006FAD5AC4204F58034CED3012081
:102EB00001214422022301B0BDE8304008F02ABFBE
:102EC00038B500244FF6FF75C0F2FD0540F6AA2084
:102ED000A92107F0D1FC40F25550562107F0CCFC57
:102EE00040F6AA20802107F0C7FC40F6AA20A921BD
:102EF00007F0C2FC40F25550562107F0BDFC2046B9
:102F0000302107F0B9FC012008F038FF20466FF0AF
:102F10007F414422022308F0FDFE00BF204607F057
:102F200032FD0006FAD5AC4204F50034CED30120C0
:102F300001214422022301B0BDE8304008F0EABE7E
:102F40002DE9F04F85B040F28874C2F20004019080
:102F50002068002800F0ED804FF000084FF67F76E3
:102F600042F2AA79C2F20009012008F007FF2168A5
:102F700040464422032308F0CDFE0024454600BF0E
:102F8000019849464FF4007204AB02F00FFD28B1DE
:102F90004DF65250C0F600000AF0A2F8CDE9024505
:102FA00004EB080040F01E0A4FF0000B40F6AA2088
:102FB000A92107F061FC40F25550562107F05CFC56
:102FC0004046262107F058FC40460F2107F054FCEC
:102FD000002700BF39F80740E819214607F04CFCEC
:102FE0000237202FF6D140462A2107F045FC0AEB94
:102FF0000B0700BF00BF00BF00BF00BF00BF00BF86
:1030000000BF00BF00BF00BF00BF00BF00BF00BFC8
:1030100000BF00BF00BF00BF00BF00BF00BF00BFB8
:1030200000BF00BF00BF00BF00BF00BF00BF00BFA8
:1030300000BF00BF00BF00BF00BF00BF00BF00BF98
:1030400000BF00BF00BF00BF00BF00BF00BF00BF88
:1030500000BF00BF00BF00BF00BF00BF00BF00BF78
:1030600000BF00BF00BF00BF00BF00BF00BF00BF68
:1030700000BF00BF00BF00BF00BF00BF00BF00BF58
:1030800000BF00BF00BF00BF00BF00BF00BF00BF48
:1030900000BF00BF00BF00BF00BF00BF00BF00BF38
:1030A00000BF00BF00BF00BF00BF00BF00BF00BF28
:1030B00000BF00BF00BF00BF00BF00BF00BF00BF18
:1030C00000BF00BF00BF00BF00BF00BF00BF00BF08
:1030D00000BF384607F057FC344300BF3043A042DE
:1030E00006D00120FEF74CF8384607F04CFCF5E717
:1030F000203509F12009BBF5F07F0BF1200BFFF41F
:1031000055AFDDE9020505F50075B0F57E4F00F518
:10311000007442F2AA79C2F20009FFF431AF40F222
:103120008874C2F2000408F5803820688045FFF4F6
:103130001BAF012001214422032308F0EBFD05B061
:04314000BDE8F08F67
:103144002DE9F04F85B040F28875C2F20005009079
:103154002868002800F07B8000274FF67F7400BFAA
:10316400012008F009FE296838464422032308F0A8
:10317400CFFD00253E4600BF009842F2AA7BC2F272
:10318400000B59464FF4007204AB02F00DFCCDE97C
:103194000156E81940F03E0003904FF0000900BFCB
:1031A40040F6AA20A92107F065FB40F255505621AC
:1031B40007F060FB3846262107F05CFB38461F21E8
:1031C40007F058FB002500BF0BEB05001BF805A01A
:1031D40040784AEA0021701907F04CFBA81C3E2DE8
:1031E4000546F1D338462A2107F044FB039800EB47
:1031F4000908404607F0C5FB4AEA04052043A842F3
:103204000AD000BF00BF00BF00BF00BF00BF00BFA7
:10321400404607F0B6FBF1E740360BF1400BB9F539
:10322400E07F09F14009BBD3DDE9010606F500762C
:10323400B0F5FF3F00F500759ED340F28875C2F2E9
:10324400000507F5003728688742FFF489AF01209D
:1032540001214422032308F05BFD05B0BDE8F08F93
:1032640030B591B001AC2046402101F065FA09F077
:10327400C1F8FFF789F8FDF757FD4DF22642C0F675
:103284000002002000210823FDF7B0FD42F6BA2217
:10329400C2F20002002028210823FDF7A7FD4DF605
:1032A4007812C0F60002002001210823FDF79EFDDC
:1032B40042F6D522C2F200023C2001210823FDF788
:1032C40095FD4DF22D42C0F6000200200221082394
:1032D400FDF78CFD40F28C70C2F2000002685AB116
:1032E40001AD4DF68211C0F60001284607F027FF14
:1032F400402002212A4605E04EF23C22C0F600029C
:10330400402002210823FDF771FD43F66520C0F239
:103314002000CDF8070046F25310C6F27650019013
:1033240042F6DF20C2F200000078052844D8DFE826
:1033340000F003121B242E38204601F089F946F6CA
:103344005561C6F66B612150204447F26F71C0F29B
:103354006E01416030E0204601F07AF9204449F2E0
:103364007C51C0F6000110E0204601F071F92044C0
:1033740049F29C51C0F6000111E0204601F068F9C1
:10338400204449F2BC51C0F600010A2212E0204652
:1033940001F05EF9204449F2D851C0F600010B2235
:1033A40008E0204601F054F9204443F6EC01C0F64D
:1033B40000010C2201F09AF901AC002003212246FD
:1033C4000823FDF713FD42F6E020C2F200004DF29F
:1033D40038410378C0F6000142F6D022C2F200025E
:1033E400204607F0ACFE0020042122460823FDF706
:1033F400FDFC4DF23E32C0F60002002007210823F6
:0C340400FDF7F4FC03F0EEFE11B030BD4B
:1034100010B58AB0012000904EF24420C0F60000A2
:1034200043F6F801C0F600010622012303F0ECFE8A
:10343000044602A8202101F081F9062C00F2D08078
:10344000DFE804F004063253748FA00001242EE25A
:1034500040F28C74C2F200042168082900F29580C1
:103460004FF48010DFE801F005C0C1C198C1C1C1AF
:103470009B00012000904EF25420C0F6000043F65D
:103480001011C0F600010622012303F0BDFE013831
:10349000C1B2062980F0A98040B243F64011C0F6BF
:1034A000000151F820009FE042F6DF24C2F2000440
:1034B0002078002840F0A480012000904DF688106C
:1034C000C0F6000043F62811C0F6000106220123D1
:1034D00003F09AFE411E052900F29280DFE801F018
:1034E0008F8F8F038C8E062089E042F6DF24C2F294
:1034F00000042078002840F0C080012000904DF6A4
:103500008810C0F6000043F62811C0F6000106221C
:10351000012303F079FE411E052900F2AE80DFE8A9
:1035200001F0ABABAB03AAA80620A5E001200090F8
:103530004DF68810C0F6000043F62811C0F60001D1
:103540000622012303F060FE052849D8DFE800F0D9
:10355000032A30363C4242F6DF20C2F2000001214D
:103560003DE009F0DFF900244DF23E32C0F60002E2
:10357000002007210823FDF73BFC03F035FE04F093
:10358000F6FF94E104F0F3FF2AE010292AD0202965
:103590002BD14FF0007027E04FF4800024E04FF46F
:1035A000000021E042F6DF20C2F20000022116E016
:1035B00042F6DF20C2F20000032110E042F6DF20D5
:1035C000C2F2000006210AE042F6DF20C2F200004B
:1035D000042104E042F6DF20C2F200000521017060
:1035E000002464E14FF080702060FDF79FFB04F041
:1035F00029FF04F0C1FF4EE1042000E00520207007
:10360000FDF794FB20780138052800F24481DFE8BB
:1036100000F00305090D1229042000E0402005F008
:1036200055FC36E101204FF400411EE001204FF42B
:103630008031002213E0002009F032F908F0DCFEAE
:1036400001204FF480310022FFF774F9012009F0C6
:1036500027F908F0D1FE00204FF480310A46FFF729
:1036600069F916E101204FF48031002205F074F869
:103670000FE1052000E004202070FDF757FB2078C3
:103680000138052800F20781DFE800F003080F3356
:103690006FB00420FFF784F8042003E04020FFF718
:1036A0007FF8402005F0B6FB0AE001204FF400410E
:1036B0000022FEF7ADFF4FF400400021FFF71CF899
:1036C00040F24071C2F20001086058B1024602ACFB
:1036D0004DF6A751C0F60001204607F032FD00204C
:1036E00004219FE04EF26422C0F600020020042173
:1036F000CCE007F053F907F0B8F942F6CB20C2F25C
:1037000000004DF6B851C0F60001052207F0A3FCF9
:10371000C0B14DF25342C0F600020020032108233D
:10372000FDF766FB02AC4DF27241C0F6000142F6B5
:10373000CB22C2F20002204607F003FD2046012101
:1037400008F0B0FA09F05CF84FF48030FFF78CF81D
:10375000002800F08D8001204FF48031002205F018
:1037600039FC4FF4803000217FE007F017F907F0B3
:103770007CF942F6CB20C2F200004DF6BD51C0F6F6
:103780000001052207F067FCC0B14DF25342C0F6BC
:103790000002002003210823FDF72AFB02AC4DF2B2
:1037A0007241C0F6000142F6CB22C2F2000220466E
:1037B00007F0C7FC2046012108F074FA09F020F850
:1037C000002009F06DF808F017FE4FF48030FFF785
:1037D0004BF880B301204FF48031002205F0FAFB52
:1037E0004FF480300021FFF7A3F92BE001204FF4C4
:1037F00080310022FEF70CFF4FF480300021FEF7ED
:103800007BFF40F24071C2F200010860C0B3024683
:1038100002AC4DF6A751C0F60001204607F091FC1E
:103820000020052122460823FDF7E2FA4DF69A1002
:10383000C0F6000020E04DF6AC10C0F600000021FC
:1038400008F030FA012009F02BF808F0D5FD4FF40C
:103850008030FFF709F858B100204FF480310A4654
:1038600005F0B8FB4FF480300146FFF761F910E036
:103870004DF6AC10C0F60000002108F013FA08E085
:103880004EF26422C0F60002002007210823FDF753
:10389000AFFA08F0B1FD00244DF23E32C0F600024E
:1038A000002007210823FDF7A3FA03F09DFC204622
:0438B0000AB010BD8D
:1038B4000A2053540A204D323957313238474800D0
:1038C4000A20496E74656C0A20343030304C30590B
:0438D400425130002D
:1038D8000A20496E74656C0A20343430304C305AF2
:0438E8004451300017
:0C38EC00313032344B20466C61736800B0
:1038F800C2DD0008BAD9000879D4000884D40008C9
:0839080070E20008C4D90008B8
:103910007CE2000880E2000884E2000888E20008F7
:08392000CBDD0008D0DD00083A
:10392800CAD9000893D400089ED40008ADD4000872
:08393800D4D900088CE200085C
:103940000000100000002000000040000000800087
:0839500000000001000000026C
:103958002DE9F04389B08846054601A81E2100F0EC
:10396800E9FEB8F1000F20D042F2AA70C2F20000BE
:10397800471900264DF2BC45C0F600050DF10409B3
:10398800002400BF3B5D484629464A4607F0D5FB60
:1039980001340A2CF6D1F1B200204A460823FDF77B
:1039A80023FA0A3701364645EAD109B0BDE8F08363
:1039B8002DE9F04FADF50D7D074600264DF2C342C7
:1039C800C0F60002002000210823FDF70DFA08F0D8
:1039D8007FFC40F28074C2F200040246206042F686
:1039E8000E25C2F200054DF6E211C0F60001284688
:1039F80007F0A3FB284600F029FE46F22E21C6F662
:103A080069612A18295016714EF29826C0F60006E8
:103A1800304603F0A1FD304607F0ECFC2068013089
:103A2800206006F0D4F803A829460A2201F02AFBF0
:103A380038B14DF6D550C0F60000012108F02EF936
:103A480054E0022F3DD34FF00009012442F2AA7539
:103A5800C2F200050DF10C0A0DF1080B47F6FF58EC
:103A6800019700BFE1B24FF4045007F073F9A0B218
:103A7800012888BF4FF480491FFA89F047F6FE7184
:103A8800884219D84F4600BF002600BFB81980B237
:103A980007F001F9A8550136B6F5007FF6D1504672
:103AA80029464FF400725B4602F0E0F807F500790A
:103AB800B8B240454F46E7D30134A0B201998842D5
:103AC800D0D303A801F05FFF4DF6EE52C0F6000216
:103AD800002001210823FDF787F942F60E22C2F2E1
:103AE8000002482001210823FDF77EF90DF50D7D20
:043AF800BDE8F08FA6
:103AFC0080B54DF2DD42C0F6000200200021082303
:103B0C00FDF770F9092005F067FD0A2005F064FD4A
:103B1C00022005F061FD0F2045F25551AA2207F055
:103B2C007CF90F2042F6AA21552207F076F90F20D6
:103B3C0045F25551602207F070F90F2045F25551AE
:103B4C00AA2207F06AF90F2042F6AA21552207F0A3
:103B5C0064F90F2045F25551402207F05EF900BF81
:103B6C00002007F096F840B20028F9DA0F2045F251
:103B7C005551AA2207F051F90F2042F6AA215522DD
:103B8C0007F04BF90F2045F25551802207F045F90B
:103B9C000F2045F25551AA2207F03FF90F2042F6AB
:103BAC00AA21552207F039F90F2045F25551102260
:103BBC0007F033F9002007F06CF840B20028F9DA6E
:083BCC00BDE8084009F012B940
:103BD4002DE9F04FADF50D7D4DF2E842C0F600023F
:103BE400002000210823FDF701F903A842F6AA11D9
:103BF400C2F20001012201F047FA38B14DF62B6000
:103C0400C0F60000002108F04BF8D5E0069CB4F59E
:103C1400821F09D303A801F0B8FE4DF61A60C0F65E
:103C24000000012108F03CF8A50B092005F0D8FCA0
:103C34000A2005F0D5FC022005F0D2FC042005F092
:103C4400CFFC4FF40450012107F086F8102005F052
:103C5400C7FC082005F0C4FC45F25550AA2107F022
:103C64007BF842F6AA20552107F076F845F2555024
:103C7400602107F071F845F25550AA2107F06CF85D
:103C840042F6AA20552107F067F845F25550402125
:103C940007F062F8002007F000F840B20028F9DAD3
:103CA400B4F5004FC0F07F80002701240DF10C090A
:103CB40042F2AA78C2F200080DF1080A47F67F7BA7
:103CC40001260195012008F057F8601E29463C2280
:103CD400002308F01DF8F4B2012C88BF4FF480478C
:103CE400B8B247F6FE71884258D800BF48464146EC
:103CF4008022534601F058FE092005F071FC112082
:103D040005F06EFC4FF40450012107F025F8102053
:103D140005F066FC082005F063FC45F25550AA2125
:103D240007F01AF842F6AA20552107F015F845F2D3
:103D34005550A02107F010F8002006F0AEFF40B265
:103D44000028F9DA092005F04BFC112005F048FCA5
:103D54004FF40450214606F0FFFF102005F040FC0C
:103D6400082005F03DFC002518F80510781980B2EC
:103D740006F0F2FF0135802DF6D107F17F0080B205
:103D8400FF2106F0E9FF00BFBDB2284606F085FF1B
:103D940040B20028F8DA80375D45A7D30136F4B283
:103DA400019DA5428ED8012001213C22002307F069
:103DB400AFFF03A801F0E9FD0DF50D7DBDE8F08F1F
:103DC40080B54DF2DD42C0F6000200200021082338
:103DD400FDF70CF8092005F003FC0A2005F000FCAF
:103DE400022005F0FDFB0F2045F25551AA2207F0F1
:103DF40018F80F2042F6AA21552207F012F80F20D6
:103E040045F25551602207F00CF80F2045F2555148
:103E1400AA2207F006F80F2042F6AA21552207F03D
:103E240000F80F2045F25551402206F0FAFF00BF7A
:103E3400002006F032FF40B20028F9DA0F2045F2E4
:103E44005551AA2206F0EDFF0F2042F6AA21552271
:103E540006F0E7FF0F2045F25551602206F0E1FF1E
:103E64000F2045F25551AA2206F0DBFF0F2042F63F
:103E7400AA21552206F0D5FF0F2045F25551042200
:103E840006F0CFFF002006F008FF40B20028F9DA60
:083E9400BDE8084008F0AEBFD4
:103E9C0010B500244DF6FA12C0F6000200200021E5
:103EAC000823FCF79FFF092005F096FB0A2005F07C
:103EBC0093FB022005F090FB4FF40450012106F017
:103ECC0047FF0F2045F25551AA2206F0A6FF0F20FE
:103EDC0042F6AA21552206F0A0FF0F2045F25551BB
:103EEC00772206F09AFF0F2045F25551AA2206F0D0
:103EFC0094FF0F2042F6AA21552206F08EFF0F20C8
:103F0C0045F25551772206F088FF082005F064FB36
:103F1C00E0B206F0BEFEFF2803D1611C4CB2002CAF
:0C3F2C00F6DAFF38B0FA80F0400910BD52
:103F380070B5FCF7F7FE40F60004C4F2010404F57E
:103F48008065284648210322802302F0E3FE04F519
:103F58004060102103224FF6F07302F0DBFE20468A
:103F6800102103224FF4706302F0D4FE284610217A
:103F780003224FF4604302F0CDFE28464FF460411F
:103F880007F05CFD04F58050042103224FF47F43C1
:103F980002F0C0FE4FF4C870FDF7D2F84FF49070ED
:103FA80006F079FE212808BF70BD00264DF6416451
:103FB800C0F600044EF2AC25C0F60005092005F055
:103FC8000DFB00BF00BF00BF00BF00BF00BF00BFA8
:103FD80000BF00BF00BF00BF00BF00BF00BF00BFE1
:103FE80000BF00BF00BF00BF00BF0136F0B20B2802
:103FF80009D30020002122460823FCF7F5FE2846B5
:10400800012107F04BFE4FF4907006F044FE212882
:04401800D4D170BDD2
:10401C002CE3000813D5000834E300081ED5000873
:0C402C0040E30008CDDE000868DA000860
:10403800034C206804348047FBE700F041FEFEE7AC
:0440480094E30008F5
:10404C0008490A68002AFED41EF0040F0CBFEFF3D7
:10405C000880EFF3098042F000420A608169023166
:08406C00816170472CED00E0BA
:104074004FF07F4C90EA010F38D4431A3CBFC01A6A
:10408400C918BCEB400F72D91CEA410F28D0C20DED
:10409400B2EBD1534FF0004C4CEA00204CEA012122
:1040A400C3F1200C01FA0CFC31FA03F1401832BFC1
:1040B400013A5FEA300040F001005CEA406C04BF62
:1040C40010F4807F20F08000000A40EBC2504FF0D3
:1040D400807111EB400F38BF70476FF316007047C3
:1040E4001CEA400F01D100F00040704781F000410C
:1040F400431A3EBF83F00043C01AC918BCEB400FFB
:1041040032D91CEA410F28D0C20DA2EBD1534FF093
:10411400004C4CEA01214CEA0020C3F1200C11FAB6
:104124000CFC21FA03F118BF41F00101401A09D433
:1041340017D0130AD2B2B0FA80F18840521A11DDB6
:1041440002EB0322C0F31621400641EBC25038BFF4
:10415400704708BF20F0010070471CEA400F08BFF9
:1041640000207047D8077047BCEB410F03D0BCEB6D
:10417400400F08BF704740F20000C7F6C070704798
:0841840081F00041FFF774BF58
:10418C004FF0FF0C1CEAD0521EBF1CEAD153FF2A81
:10419C00FF2B28D01A444FF0004C90EA010313EA8D
:1041AC000C034CEA01214CEA0020A0FB01C1B1F147
:1041BC00004F62F17F0238BF49004CEA416CFE2A85
:1041CC0009D253EA11204CEAC07C28BFBCF1010390
:1041DC0040EBC2507047124244BF18467047FF2054
:1041EC0043EAC050704710EACC5F08BF00F00040B3
:1041FC0011EACC5F08BF01F000410CEAD153FF2A51
:10420C0018BFFF2B03D0484000F000407047002837
:10421C001EBFB0F1004F0029B1F1004F0DD0FF2AA5
:10422C0001D1420209D1FF2B01D14A0205D14840EC
:10423C005FF0FF4161F31E00704740F20000C7F6CB
:04424C00C070704787
:10425000FF2313EAD0521EBF13EAD153FF2AFF2BCC
:1042600035D0D21A7F3281EA000C0CF0004C4FF0AE
:10427000004343EA002043EA012130B4431A3CBF23
:1042800001EB4303013A090AB3FBF1F505FB1133D6
:104290001B02B3FBF1F001FB103300EB05201B0206
:1042A000B3FBF1F505EB00205CEA500050EBC25087
:1042B00030BC002A08DDFF2A38BF70474FF0FF40AE
:1042C0001CF00041084370470CF00040704703EABF
:1042D000D153FF2B07D1FF2A14D05FEA412C0DD018
:1042E0004FF4400016E0FF2A04D14300B3F17F4FA2
:1042F0000BD007E01A4305D0002B06D0484000F051
:10430000004070474FF4400004E0484000F0004097
:0C43100040F4000040F0FE40704700BF89
:10431C0050EA0102520007D0884203D1400010F14C
:0C432C00807F01D90020704701207047FD
:1043380042004B0012F1807F94BF13F1807F0CE0A4
:1043480050EA010252000AD003D28842804101306B
:10435800704781428041013070470020704701203A
:04436800704700BFDB
:10436C0042004B0012F1807F94BF13F1807F0CE070
:10437C0050EA0102520008D003D2814280414042EF
:10438C00704788428041404270470020704700BF10
:10439C0042004B0012F1807F94BF13F1807F0CE040
:1043AC0050EA0102520008D003D2884280414042B8
:1043BC00704781428041404270470020704700BFE7
:1043CC00420015D2120ED2F19E02202A05D2000212
:1043DC0040F00040D04000217047203207D301024A
:1043EC0041F0004161FA02F0D1404840704702DDD3
:1043FC000020002170476FF000000146704700BF9D
:10440C00C1B1B1FA81F3D3F1BD02994010FA03FCAA
:10441C0018BF41F00101D3F1200330FA03F3194323
:10442C00D2054B0642EB112038BF704708BF20F075
:10443C000100704768B1B0FA80F39840D3F19D0247
:10444C00D205430642EB102038BF704708BF20F05E
:04445C0001007047A4
:1044600001F000428B1AA3F16051B1F5801F0ADB05
:10447000B1F17F6F09D242EAC102C10071F100417E
:1044800042EB507070471046704701285B4113F5AE
:10449000001F02D842F0FF407047C90041EA507047
:0C44A000104340F4800040F08040704762
:1044AC00002B35D129B9B0FBF2FC0CFB1202604693
:1044BC007047914215D22DE9F041B2FA82F39A403D
:1044CC009940D3F1200C30FA0CFC51EA0C019840C5
:1044DC0000F04EF8280036FA03F200210023BDE864
:1044EC00F081F0B5B1FBF2FC0CFB1211B2FA82F3C5
:1044FC009A409940D3F1200630FA06F631439840A1
:10450C0000F036F8614628003200DA400023F0BD96
:10451C00F3B5B3FA83FC49085FEA300013FA0CF3E5
:10452C00DCF1200432FA04F423430CB41A0000F03A
:10453C001FF80CBC33FA0CF3DCF11F0C35FA0CF53C
:10454C0018BF013D03BCA5FB026705FB0377801B6D
:10455C00B941904271EB030C05D3821A71EB030342
:10456C00681C0021F0BD02000B0028000021F0BDEA
:10457C00940D4FF6C2752D02B5FBF4F4D60A013634
:10458C0004FB04F5A5FB0656F64306EB041655088A
:10459C0032BF00277708013505FB1677A6FB0747C6
:1045AC007F0807EBC63714001500E7FB02457F1B9D
:1045BC004D1C0400E7FB014505FB1206A64284BF17
:1045CC00013DB618964224BF0135B61A704700BF9C
:1045DC0050EA01039B0710D170B44FF00136F30180
:1045EC0050F8044B51F8045BAC4203D1A51BA54316
:1045FC001D40F5D070BC0438043910F8012B11F8AB
:10460C00013BD21A01D1002BF7D11046704700BFE5
:10461C00024650EA01039B070ED1F0B44FF001376C
:10462C00FB0151F8044BE51BA5431D4002D142F898
:10463C00044BF6E70439F0BC11F8013B02F8013BDE
:08464C00002BF9D1704700BFFB
:10465400411C82070CD010F8012BDAB1820707D075
:1046640010F8012BB2B1820702D010F8012B8AB1E5
:1046740030B44FF00134E50150F8042B131B93437D
:104684002B40F9D030BC04381BBAB3FA83F300EBE7
:08469400D3000130401A704709
:10469C00C9B2820709D010F8012B8A4203D0002A34
:1046AC00F7D1002070470138704770B44FF00132D9
:1046BC00D301514350F8044BA51AA5434C40A61AFC
:1046CC00A6432E431E40F5D070BC0438C9B210F876
:1046DC00012B8A4203D0002AF9D1002070470138FF
:0446EC00704700BF54
:1046F000844640EA010313F0030F16D18446202AB2
:104700000AD32DE9F007B1E8F807A0E8F807203A46
:10471000202AF8D2BDE8F007042A06D351F8043B5A
:1047200040F8043B043A042AF8D22AB111F8013BBC
:0C47300000F8013B013AF9D160467047E7
:10473C0000220B0011001A00844662B310F0030F24
:10474C0004D000F8011B013AF8D124E089B241EA07
:10475C00012141EA0141202A11D3203A2DE9F0032D
:10476C000B460C460D460E460F4688468946A0E879
:10477C00FA03203AFBD2BDE8F00320320BD0042A16
:10478C0005D340F8041B043A05D0042AF9D200F8EA
:0C479C00011B013AFBD16046704700BFD2
:1047A800000020410000C84200401C4620BCBE4C0E
:0847B800CA1B0E5AAEC59D7428
:1047C000084B1B6883420AD0074B1B68834206D004
:1047D000064B1B68181A18BF4FF0FF3070470020B7
:1047E000704700BF102B00200C2B0020142B002042
:0447F00040207047AE
:0847F400006800F0CBB800BF23
:1047FC002DE9F043002203254FF48068102612485F
:10480C00124B134CDFF84C90134F0561532145614B
:10481C009E468461A3F10F0CC0F81C90C0F8208058
:10482C0082624262C2620466476686660267C2663C
:10483C00426701E013F80119AEEB030263458154A2
:10484C00F8D1BDE8F08300BF3806002062A800084C
:0C485C0040A800080000002028070020F1
:104868002DE9F843D0E90295A9EB050890450446DF
:10487800164607D9406828443544FFF735FFE560F8
:10488800BDE8F8830F464068424628443544A5EB06
:104898000905FFF729FF2A46606807EB0801FFF7BB
:0848A80023FFE560BDE8F88381
:1048B0002DE9F8434FF00009064617468846D0E92F
:1048C000021533694C1B9D4203F1FF3224BF03F1F3
:1048D000FF325218BC4228BF3C46521B944228BFAC
:1048E00014467068414628442246FFF701FFB1682C
:1048F0002544A94208BF00253F1BA144A044F56000
:08490000DFD14846BDE8F88351
:1049080038B5204B00EB400403EBC40EDEF82C4016
:10491800013000EB4000012C8C46154603EBC0002B
:1049280005D0022C29D0ACB10024204638BDDEF8D1
:104938002830DEF8242093429CBFDEF820401B1963
:10494800013B9C1AAC4228BF2C462246FFF788FF41
:10495800204638BDDEF82830DEF8242093429CBF7C
:10496800DEF820105B18013B9B1A9D42DDD82A46D1
:104978006146FFF775FF2C46D7E7BDE83840FFF7DB
:0849880093BF00BF38060020B8
:10499000F8B50B4B04461B780D4616466BB1EFF38A
:1049A00011874FF0200181F31188324629462046B5
:1049B000FFF7AAFF87F31188F8BDFFF71FFFEEE7A7
:0449C0003806002095
:0E49C40080B500BFFBF76EFC0028FBD008BDDD
:1049D20041F20400C4F2020041F20022016801F037
:1049E2000C010829C0F27A0219D10168C90340F604
:1049F2000011C0F23D0103D503689B0358BF114665
:104A020002680068102303EAD050C2F383421044C4
:104A120002220E2888BF0122104400FB01F242F656
:0A4A22001830C2F200000260704775
:104A2C0010B582B00020019001F0A5FF1D280CD11B
:104A3C0040F2E064C2F20004204602F046FC1D285D
:104A4C0003D1B4F8440006F08FFF01A806F09CFFD8
:104A5C0004469DF8070080070ED41D2C09D10120B7
:104A6C0001F0E1FF04464DF25450C0F6000008F08E
:104A7C0031FB204602B010BD4DF20C10C0F6000008
:064A8C0008F028FBFEE724
:104A920038B549F2E740C0F6000008F020FB40F2CA
:104AA2003874C2F200046068C0F3036151B1012995
:104AB2000DD002291CD101040ED44DF2A250C0F631
:104AC200000013E04DF2D650C0F600000EE04DF2A9
:104AD200BC50C0F6000009E040054DF26E50C0F631
:104AE20000005CBF4DF28850C0F6000008F0F7FAF3
:104AF2006068C0F302500238022807D840F2183129
:104B0200C0F6000151F8200008F0E9FA40F2F8641A
:104B1200C2F20004A56806F05CFF01464DF604707F
:104B2200C0F6000008F0DBFA4DF22660C0F6000085
:104B32004FF4007108F0D3FA4FF4806000EB852146
:104B42004DF24060C0F6000008F0C9FAE07828B1E2
:104B52004DF62070C0F6000008F0C1FAE07D28B1E1
:104B620049F25350C0F6000008F0B9FA24884DF219
:104B72005A60C0F60000214608F0B1FA04F01400B1
:104B8200142805D14DF27C60C0F6000008F0A7FAA7
:104B9200A00605D54DF64870C0F6000008F09FFA51
:104BA200600605D54DF22310C0F6000008F097FA12
:104BB200200605D54DF29E60C0F6000008F08FFA7F
:104BC200E00505D54DF24610C0F6000008F087FA60
:104BD200A00505D54DF26D10C0F6000008F07FFA71
:104BE200600558BF38BD4DF2BC60C0F60000BDE89C
:064BF200384008F074BA1F
:104BF80010B50524FFF716FF1D2810D0013C20042E
:104C0800F8D142F6E220C2F200000021017049F218
:104C1800A750C0F60000012107F040F80BE04DF264
:104C2800DE60C0F6000008F057FA43F2E820C2F24E
:104C380000001D210170FFF728FF40F20040C2F27A
:104C4800000049F2E351C0F60001012200F0F5F935
:104C580050B101460D2810D14DF67620C0F600005F
:104C6800BDE8104008F038BA4DF67470C0F6000080
:104C78000021BDE8104008F02FBA4DF66070C0F66C
:0A4C8800000008F029FA00BFFEE763
:104C920080B503F0BDFB40F2056006F0DEFE40F297
:104CA200026006F0DAFE40F2066006F0D6FE4FF42D
:104CB200C06006F0D2FE07F00EFB40F28071C2F235
:064CC2000001086008BDBE
:104CC800FFF7E3FF03F049FB06F092FFFCF72AF831
:0E4CD80003F05DFBFFF78CFF06F0B8FAFCE777
:104CE600002811BF012043F2E720C2F2000000783D
:024CF600704705
:104CF80080B5002815D15202084611464FF40072BB
:104D0800012B02D1FBF7A0FD01E002F0ECF81D2811
:104D180006D100BF02F06BFA0028FBD1002000E0AA
:064D28000420C0B208BD2A
:104D2E0008B10120704743F2E820C2F2000043F2BE
:104D3E00E721C2F2000100781D3818BF012008706B
:024D4E007047AC
:104D50000268D2B1002300BFD15C0133202901D306
:104D60003A29F9D13A2913D192F800C0ACF13001B7
:104D700009294FF0FF3110D8022B0ED1BCF1300FB2
:104D80000BD8D1180160002107E04FF0FF3104E09B
:0E4D900042F6EA20C2F20000017808467047A1
:104D9E0008B10420704701290AD0032911D0022935
:104DAE0015D140F2E060C2F20000006C10800EE0FF
:104DBE0040F2E060C2F20000D0E90F01B0FBF1F06A
:104DCE0004E040F2E060C2F20000006C10600020CF
:024DDE0070471C
:104DE0002DE9F04784B0154688460021C8F8001028
:104DF000FFF7AEFF002819D4064640F29C70C2F2BD
:104E0000000050F826400CB3C8F8004005F0FE053D
:104E1000207868B16078FFF766FFC10708D14007C6
:104E20000A21002D18BF01EAE07512E00B2510E001
:104E3000667000202070F0B2FFF779FFC10707D13C
:104E40005DB110F0040008D00A2502E00C2500E056
:104E50000325284604B0BDE8F0872046002106F06F
:104E6000BBFB02281FD14FF4FF766F4640F23E286D
:104E70003D4600BFA01906F01FFA45F8040B103696
:104E80004645F7D1002600BF57F8261021B120462D
:104E900006F0A2FB01E000BF0320022803D3032E8B
:104EA00006F10106F0D3042801D10125D1E701283C
:104EB0002DD8B4F84300B0F5007F28D1D4F8349051
:104EC000B4F84E5025B904F15C0006F0F5F905463A
:104ED000256294F8488084F80280A8F10100012836
:104EE00015D894F845606681701E304018BF0120C7
:104EF000B6FA86F14909084309D194F8490094F8B3
:104F00004A1040EA012AA4F808A0000701D00D25A4
:104F10009FE7B4F84B0018B904F1580006F0CCF93B
:104F2000B4F84620002AF2D005FB08F101EB1A1371
:104F300013449842EBD3C01AB042E8D3B0FBF6F06A
:104F40004FF6F678C0F6FF780027404538BF0327B4
:104F50004FF6F678404538BF022740F6F6784045D0
:104F600038BF0127002FD2D04B4423634A44C4E901
:104F70000992861CE661032F0BD1B4F8620050EA57
:104F80000A00C4D104F1640006F096F9E062B000B2
:104F90000EE0BAF1000FBAD01144E162022F01D144
:104FA000700005E006EB460100F0010000EB510047
:104FB00000F2FF10B5EB502FA9D34FF0FF30C4E93A
:104FC000040080202071032F2FD1B4F8680001283D
:104FD0002BD109F10101204600F05DF928BB00202A
:104FE0002071B4F836024AF6552188421DD104F1E9
:104FF000380006F061F945F25221C4F2611188428D
:1050000013D104F5077006F057F947F27221C6F282
:105010004111884209D104F5087006F04DF960612C
:1050200004F5097006F048F920612770002540F268
:10503000A870C2F20000A561018801310180E18001
:0250400007E780
:1050420031B582B014460546CDE900116846FFF736
:105052007EFE002814D440F29C71C2F2000151F885
:1050620020200AB1002313700DB100222A7041F8EA
:1050720020503CB101A802A90022FFF7B0FE02E0D5
:0A5082000B2000E0002003B030BD59
:10508C002DE9F04FADF50F7D8E9168B19146074635
:10509C0002F03F0A8EA881A95246FFF79BFE0446F8
:1050AC0040B10020386000E0092420460DF50F7D4A
:1050BC00BDE8F08F819D01A8E86082958E9982A849
:1050CC0000F0FEF8044606209DF93312002C08BFB0
:1050DC0000EAD1141AF01C0F00F09480002C00F0A0
:1050EC009F80042C03D182A800F002FB04464AF0F6
:1050FC00080A6CBB1AF008002AD006F0C7F8899E83
:10510C003146C6F81600C6F80E00284606F0C2F85E
:10511C008146002070832021F1722978032908BF71
:10512C00B082F0610120E870B9F1000F12D06E6B03
:10513C0082A849460022FBF707F904460028B0D1A3
:10514C002846314600F0A1F80446A9F10100286177
:10515C00002CA6D1899E7E62686B38622846314647
:10516C0006F098F88146B86006F11C0006F09EF82F
:10517C008046F8603D600024FC610AF008004AEAB1
:10518C00C00038827C61E888B88007F12806304678
:10519C004FF40071FFF7CCFA5FEA8A607FF585AFB8
:1051AC00A0453FF482AFC7F814806889A346B8EBDA
:1051BC00402F42D90096ABEB402A4646440200BF32
:1051CC003846494600F03FFA814601300021B9F1DA
:1051DC00020F38BF01214FEA410B002808BF4FF0E6
:1051EC00010BA6EB0408BBF1000F04D10AEB06007F
:1051FC00A0424646E4D8BBF1000F584618BF012028
:10520C00009E1BE0002C7FF44CAF9DF80E02C106F3
:10521C0011D45FEA8A719DD510F0010005D199E790
:10522C009DF80E0210F0110F01D0072439E7082069
:10523C0000EA49045DE7042433E70020C7F818901E
:10524C00D0B940466FF35F20B0B1A9F10200E96913
:10525C000239884217D2296B6A8900FB021090B17F
:10526C0000EB5822FA616878012431460123FBF7E0
:10527C0053F800287FF415AFBBF1000F5C467FF4A8
:0A528C0010AF002411E702240BE725
:1052960038B50546406B884204BF002038BD0C4631
:1052A600284601F06FF800B138BD687805F138017D
:1052B60022460123FBF733F800281CBF4FF0FF34CA
:0652C60001206C6338BDFD
:1052CC002DE9F04F89B08A460646087835685C2887
:1052DC0006D02F2804D0A86907E000BF1AF8010FE8
:1052EC005C28FBD02F28F9D00020B0609AF8000081
:1052FC00202809D2802086F82B003046002109B0E6
:10530C00BDE8F04FFBF7DAB806F12004D5F80C80B5
:10531C004DF6D02BC0F6000B0AF10109002700BF97
:10532C0040F2B51101F0F9F8002800F07C818246BA
:10533C0080B220281CD35C2820D02F281ED07F2898
:10534C000CD858465146092207F014FE0146062097
:10535C00002940F06981FE2F03D965E1FE2F00F290
:10536C00628128F817A019F8070001370028D7D157
:10537C0009EB070A4FF0040B12E000BF09EB070A18
:10538C009AF800005C2801D02F2803D10AF1010AF9
:10539C00F6E700BF20282CBF002001204FEA800B2D
:1053AC00012F07D0022F01D0E7B939E1B8F802007C
:1053BC002E2817D1B8F800002E2813D1002028F879
:1053CC00170000BF2021B84238BF2E2121540130D4
:1053DC000B28F7D10BF120004DF6D02BC0F6000BAB
:1053EC00F8E000BFA8F1020030F817102E2901D008
:1053FC00202902D1013FF7D112E106960894002131
:10540C0028F8171038F811200131202AFAD0059508
:10541C002E2A4BF0030208BF9346012918BF93466E
:10542C00A1F101093E4627B130F81610771E2E293E
:10543C00F8D108984FF02031C0F80710C0E90011DE
:10544C00751E4FF0080C01224FF0000E00230024B3
:10545C00ACF10100079048464BF0030138F810708E
:10546C00202F03D02E2F05D1854273D001308B46CF
:10547C00F4E700BF002F00F0868000F101096345BE
:10548C007CD285427AD0802FCDE903392ED3CDE959
:10549C0001C41446F146384640F2B511FBF734F915
:1054AC00074600060FD4FF2FCE462246DDF804C077
:1054BC00DDE9033917D90798029C83422CD34BF0B2
:1054CC00030B6346C7E707F07F004DF68471C0F607
:1054DC0000014BF0020B0F5CCE462246DDE901C405
:1054EC00DDE9033902E04BF0020B029C87B14DF26F
:1054FC009710C0F600003946CDE901E20722E146DB
:10550C0007F038FDCC46DDE90339DDE901E260B195
:10551C004BF0030B5F2717E006981844390A80F804
:10552C00201001334BF0020B0EE0A7F1410080B2CA
:10553C001A2838BF4EF0020EA7F1610080B219286C
:10554C009CBF203F4EF0010E06981844013380F8A2
:10555C00207080E70121B146E0074BF0030013D126
:10556C00002908BF8346B1450DD84FEA8E0E4FF087
:10557C000B0C002201240823B14669E7281AB0FA63
:10558C0080F04109E8E75846089CDDE905564DF6E0
:10559C00D02BC0F6000B2178E52904BF0521217022
:1055AC00D10718BF4FEA8E0E0EF0030140F0020235
:1055BC00032908BF10460EF00C010C2908BF104639
:1055CC00102101EA0E110EF0040241EA4201820799
:1055DC0058BF084386F82B00304600F0C5FC96F8FF
:1055EC002B1030B104281FD1880620D548070FD5C1
:1055FC0022E0480723D4B079C00622D530696FF376
:10560C005F20284400F13801284605F043FEB060C5
:10561C0031689AF80000D1F80C8000287FF47CAE39
:10562C000020A8F80000062009B0BDE8F08F48075C
:10563C004CBF04200520F7E7802086F82B000020C3
:06564C00F2E70520F0E783
:10565200F8B502292FD305680C46E86988422AD991
:105662002878032829D0022838D0012823D104EB36
:105672005407A86A00EB57212846FFF70BFEA0BB90
:105682007E1C6FF35F27E819A96A90F8387001EB66
:1056920056212846FFF7FEFD38BB6FF35F26A81997
:1056A200E10790F8380047EA002108466FF31F30FF
:1056B20018BF0809F8BD0120F8BDA86A00EBD41193
:1056C2002846FFF7E7FD80B904F07F0005EB800074
:1056D200383005F0F0FD20F07040F8BDA86A00EB0C
:1056E20014212846FFF7D6FD10B14FF0FF30F8BD68
:0A56F200E0B205EB4000008FF8BDA8
:1056FC002DE9F04F87B090F82B6016F0A00F03D077
:10570C00062007B0BDE8F08F044607680025F8684E
:10571C0030F8151001350029FAD104F1200B02A83C
:10572C0059460CC90CC00A88028089788170F00730
:10573C00B84601971CD105F10B004EF64F41C4F64B
:10574C00C461A0FB0101012000EB9105B00758BF1B
:10575C00012520460021FAF7B1FE002873D0042859
:10576C0008BF0720002800F087800028C9D1E4E09A
:10577C000096402084F82B004FF0010941F22106DD
:10578C00C0F201060DF1140AD7F80C80584602A994
:10579C000B22FEF7A7FFB9F1050F494614D9B8F84B
:1057AC00000000BF80B110220B4600BF00F00101C9
:1057BC0041EA43011B0448BF71404008013A0B46C3
:1057CC00F4D138F8020FEDE7072006231A4601F052
:1057DC000F0303F13007392F88BF03F137070AF89D
:1057EC000070013804D0531E0F294FEA1111EDD867
:1057FC007E210AF80010002140B100BF1BF80130D7
:10580C00202B03D00131013AF8D1014607289ABF69
:10581C001AF80020013020226318013183F820206F
:10582C000829F3D1204600F09FFB30B909F101099A
:10583C00B9F1640F019FA7D103E0B9F1640F40F0F7
:10584C00978007205DE70026A1694046FFF71DFD04
:10585C0000287FF484AFE0690078E52800D018B9FF
:10586C000136AE4201D107E000262046012105F0A9
:10587C001DFE0028E8D072E7B5F1010A5DD0206961
:10588C00A0EB4A112046FAF719FE00287FF439AF35
:10589C005846FAF72BFF00904FF6FF784DF6D929B2
:1058AC00C0F60009A169019D2846FFF7EEFC00280F
:1058BC007FF427AFE968E069002242830F23A0F848
:1058CC000B30009B43735FFA8AF30D277B430D3B30
:1058DC000027AC4647451ABF31F8137001334FF619
:1058EC00FF7719F80250461947553D0A75701FB1DC
:1058FC000C2A05D106E000BF0C2A4FF6FF7703D027
:10590C000132E7E7474502D14AF0400106E031F8A1
:10591C0013100029514608BF4AF0400101700120C4
:10592C008CF803002046002105F0C0FD00287FF410
:10593C001CAFBAF1010AB5D117E7A1690198FFF7BD
:10594C00A4FC00287FF4DDAEE0692021FEF7F0FE18
:10595C00E06959460B22FEF7C5FEE06994F82B105E
:10596C0001F01801017301990120C8700020C8E6EC
:10597C0004287FF4C6AE009E84F82B60D4F8008017
:02598C00D9E65A
:10598E0010B582B0044605F0AAFC30B901A9204634
:0E599E0005F08DFC08B90020206002B010BD9D
:1059AC002DE9F04F83B09A4616468B4604460020EC
:1059BC00186002A9204605F07BFC0546002840F043
:1059CC009E80657C002D40F09A80207CC00701D120
:1059DC00072594E0E1686069091AB14238BF0E46A8
:1059EC00002E00F0868004F128010191029F00BF77
