:020000040800F2
:10C0000000C0002021D900080B6C01083DD90008B0
:10C010000000000000000000000000000000000020
:10C020000000000000000000000000000D6C01088E
:10C0300000000000000000000F6C01086FA3010861
:10C04000116C0108136C0108156C0108176C0108CC
:10C05000196C01081B6C01081D6C01081F6C01089C
:10C06000216C0108236C0108256C0108276C01086C
:10C07000296C01082B6C01082D6C01082F6C01083C
:10C08000316C0108336C0108356C0108376C01080C
:10C09000396C01083B6C01083D6C01083F6C0108DC
:10C0A000416C0108436C0108456C0108476C0108AC
:10C0B000496C01084B6C01084D6C01084F6C01087C
:10C0C000516C0108536C0108556C0108576C01084C
:10C0D000596C01085B6C01085D6C01085F6C01081C
:10C0E000616C0108636C0108656C0108676C0108EC
:10C0F000696C01086B6C01086D6C01086F6C0108BC
:10C10000716C0108736C0108756C0108776C01088B
:10C11000796C01087B6C01087D6C01087F6C01085B
:10C12000816C0108836C0108856C0108876C01082B
:10C1300001000000000000000A00000000000000F4
:10C140006400000000000000E803000000000000A0
:10C150001027000000000000A08601000000000081
:10C1600040420F0000000000809698000000000090
:10C1700000E1F5050000000000CA9A3B0000000045
:10C1800000E40B540200000000E8764817000000AD
:10C190000010A5D4E800000000A0724E18090000AD
:10C1A00000407A10F35A00000080C6A47E8D030080
:10C1B0000000C16FF286230000008A5D78456301AC
:10C1C000000064A7B3B6E00D0000E8890423C78A25
:04C1D000B0E40108CE
:04C1D400C1E40108B9
:08C1D800C1E40108B0E4010814
:08C1E000D2E40108ACE0010803
:10C1E80086B08DF817008DF81610049204208DF88B
:10C1F8000F009DF817000146019138B101980128F8
:10C2080003D0019802282BD02AE029E09DF81600D7
:10C218000146009103281FD80099DFE801F01D129C
:10C22800020A40F23820C2F20000006C049908802B
:10C2380012E040F23820C2F20000006C0499086055
:10C248000AE040F23821C2F20001C86B096CB0FB69
:10C25800F1F004990860FFE700208DF80F00FFE770
:08C268009DF80F0006B07047BD
:10C2700080B5ADF5876DCDF83404CDF830140020CD
:10C28000CDF82C04CDF82804DDF8341443F6F00082
:10C29000C2F2000001F03AFE0DF0A1FDDDF83024FD
:10C2A000002108910823084606F0C8FF0898CDF839
:10C2B0002C0443F6ED42C2F200020121117043F654
:10C2C000E742C2F2000211708DF85B0243F6F00102
:10C2D000C2F20001DEA804F002FB40B10DF07FFDC8
:10C2E0004EF21450C0F6010001210DF0FEFD43F6A0
:10C2F000F000C2F200000BF0A6FD0020CDF82804EB
:10C30000DEA897A90BF05DFE8DF877039DF8770303
:10C31000002841D19DF8720218B901208DF85B0206
:10C320003CE0DDF82C0440F2F042C2F2000204923C
:10C330006421059100FB012097A907911631069110
:10C3400001F0E4FD049B059ADDF8281443F6F4405F
:10C35000C2F2000050F82100DDF82C1401FB02317C
:10C3600001F0D4FD06990798DDF82C240132CDF8B0
:10C370002C24DDF828240132CDF8282400F109020C
:10C380004EF67C20C0F6010011F021FBDDF82804F8
:10C39000072800DB02E000E000E0B1E701208DF8B3
:10C3A0005902DDF83004DDF828249DF85932EC46B6
:10C3B0000021CCF8001043F6F441C2F200010DF068
:10C3C00042FE8DF85A029DF85A02014603916728F1
:10C3D00000F278810399DFE811F068008D008D008C
:10C3E0008D008D008D008D008D007501750175012A
:10C3F000750175017501750175017501750175018D
:10C40000750175017501750175017501750175017C
:10C41000750175017501750175017501750175016C
:10C42000750175017501750175017501750175015C
:10C43000750175017501750175017501750175014C
:10C44000750175017501750175017501750175013C
:10C45000750175017501750175017501750175012C
:10C46000750175017501750175017501750175011C
:10C47000750175017501750175017501750175010C
:10C4800075017501750175017501750175017501FC
:10C4900075017501750175017501750175017501EC
:10C4A0007501D8001301D80013017F20959095984D
:10C4B00001281BDB959943F6F000C2F20000405CB6
:10C4C0002F2807D0959943F6F000C2F20000405C97
:10C4D0005C2807D1959A43F6F001C2F200010020D2
:10C4E000885403E0959801389590E0E7DEA804F0C1
:10C4F00053FAD1E69DF85A1243F6F440C2F2000016
:10C5000000EB810050F8041C0BA8002203F0ACFAE9
:10C510008DF877039DF87703D8B143F6F000C2F2A7
:10C52000000002904EF2B601C0F601010AF083FC51
:10C5300002989DF85A2243F6F441C2F2000101EB41
:10C54000820151F8041C0AF076FCDEA804F024FAFB
:10C55000A2E60BA804F08FF843F6F000C2F2000048
:10C5600001904EF2B601C0F601010AF064FC019898
:10C570009DF85A2243F6F441C2F2000101EB820118
:10C5800051F8041C0AF057FCA3E043F6ED40C2F258
:10C590000000007802282FDB43F6ED41C2F20001D3
:10C5A00008780138087000200A900A9806281DDCD7
:10C5B0000A9A43F6F440C2F2000050F8220043F613
:10C5C000ED41C2F200010978C1EBC101114440F212
:10C5D000F043C2F20003642201FB0231A1F52F7186
:10C5E00001F094FC0A9801300A90DEE700208DF8F3
:10C5F0005B020720CDF8280401208DF85902D0E60F
:10C600009DF85B0220B1DDF828048DF85902C8E6D8
:10C6100043F6ED40C2F2000001780131017000786C
:10C6200043F6E741C2F200010978884207DD43F68C
:10C63000E741C2F200010878013008705DE6002091
:10C64000CDF828048DF85B0209900998062835DC9E
:10C6500043F6ED40C2F200000078C0EBC00009993B
:10C6600008440738DDF82C1488421FDA099A43F68B
:10C67000F440C2F2000050F8220043F6ED41C2F24D
:10C6800000010978C1EBC101114440F2F043C2F24C
:10C690000003642201FB0231A1F52F7101F036FC89
:10C6A000DDF828040130CDF8280403E001208DF8DE
:10C6B0005B0203E0099801300990C6E701208DF87C
:10C6C00059026EE64EF68C20C0F6010001210DF0F5
:08C6D0000CFC0DF5876D80BD27
:10C6D80080B586B040F247100DF06DFE40F2C421DF
:10C6E800C2F2000108604FF4A4700DF064FE40F23D
:10C6F800EA41C2F200010291088040F249100DF0AF
:10C708005AFE0146029840F2BC22C2F200021160B1
:10C7180000880146039107283FD80399DFE801F014
:10C72800040B121920272E3540F2C821C2F200014D
:10C738000220086037E040F2C821C2F2000104205C
:10C74800086030E040F2C821C2F200010820086009
:10C7580029E040F2C821C2F200011020086022E05E
:10C7680040F2C821C2F20001202008601BE040F21C
:10C77800C821C2F200014020086014E040F2C8213C
:10C78800C2F20001802008600DE040F2C821C2F228
:10C7980000014FF48070086005E040F2C821C2F241
:10C7A80000010220086040F2C021C2F2000100200E
:10C7B800086040F2C420C2F200000068062805D1D3
:10C7C80040F2C021C2F200010120086040F2BC2002
:10C7D800C2F20000006802380146019103281FD800
:10C7E8000199DFE801F00209101740F2C021C2F2F6
:10C7F80000010120086013E040F2C021C2F20001EC
:10C80800042008600CE040F2C021C2F200011020B0
:10C81800086005E040F2C021C2F20001082008606B
:10C8280040F2C420C2F200000068062806D140F297
:10C83800EC41C2F200014AF2FF10088040F2BC202D
:10C84800C2F200000068012807D140F2EC41C2F2B0
:10C8580000014AF2FF7008800DE040F2BC20C2F2ED
:10C8680000000068022806D340F2EC41C2F2000141
:10C878004BF6FF7008804FF4A7700DF09CFD0090F8
:10C8880040F24F100DF097FD009A034643F6D5404D
:10C89800C2F200004EF21D51C0F601010AF018FB69
:10C8A80000208DF817008DF816004FF49A70049048
:10C8B8000498B0F59E7F2BDCBDF810000DF07BFDD1
:10C8C8008DF817009DF81700302803DB9DF8170036
:10C8D8003A2807DB9DF81700412815DB9DF817005B
:10C8E8007A2811DC9DF816000E280DDC9DF817003B
:10C8F8009DF8162043F62C41C2F2000188549DF899
:10C90800160001308DF81600049801300490CFE726
:04C9180006B080BD28
:10C91C0080B592B00DF05DFA43F6D540C2F200003E
:10C92C004DF6E221C0F6010101F0CAFA002800F030
:10C93C00F6814EF2B802C0F6010200210D910823D7
:10C94C000C93084606F074FC0C9B4DF6E522C0F6E1
:10C95C00010202200B9001210A9106F069FC0A9950
:10C96C000C9B43F62C42C2F200022D2006F060FC18
:10C97C000B990C9B4EF22652C0F60102084606F0AB
:10C98C0057FC0D98119040F2C420C2F200000068D0
:10C99C0068B140F2C420C2F200000068082806D03A
:10C9AC0040F2C420C2F200000068092805D14EF202
:10C9BC002F50C0F601001190BEE040F2C420C2F22C
:10C9CC000000006801280DD040F2C420C2F2000023
:10C9DC000068022806D040F2C420C2F200000068B1
:10C9EC00032805D14EF23450C0F601001190A3E09B
:10C9FC0040F2C420C2F200000068052806D040F2C4
:10CA0C00C420C2F200000068062805D14EF239504D
:10CA1C00C0F6010011908FE040F2C420C2F2000079
:10CA2C0000680B280DD040F2C420C2F20000006850
:10CA3C000C2806D040F2C420C2F2000000680D2879
:10CA4C0005D14EF2C600C0F60100119074E040F220
:10CA5C00C420C2F2000000680F281BD040F2C42092
:10CA6C00C2F200000068102814D040F2C420C2F2B8
:10CA7C000000006811280DD040F2C420C2F2000062
:10CA8C000068122806D040F2C420C2F200000068F0
:10CA9C00132805D14EF23E50C0F6010011904BE028
:10CAAC0040F2C420C2F20000006815280DD040F2FC
:10CABC00C420C2F200000068162806D040F2C42040
:10CACC00C2F200000068172805D14EF24350C0F6A0
:10CADC000100119030E040F2C420C2F20000006866
:10CAEC00192824D040F2C420C2F2000000681A2891
:10CAFC001DD040F2C420C2F2000000681B2816D0E2
:10CB0C0040F2C420C2F2000000681C280FD040F292
:10CB1C00C420C2F2000000681D2808D040F2C420D6
:10CB2C00C2F20000006840F23511884204D14EF286
:10CB3C004850C0F60100119040F2C420C2F200002F
:10CB4C000068FC2804D14DF6EC20C0F601001190D1
:10CB5C00119A3720022107910823089306F068FBED
:10CB6C000798089B4DF6F322C0F60102032106F04C
:10CB7C005FFB40F2EA40C2F20000008801460991D6
:10CB8C00072835D80999DFE801F0040A10161C2291
:10CB9C00282E4EF24D50C0F60100119028E04EF2B6
:10CBAC005250C0F60100119022E04EF2CC00C0F6BB
:10CBBC00010011901CE04EF2D200C0F60100119061
:10CBCC0016E04EF2D800C0F60100119010E04EF6BF
:10CBDC009820C0F6010011900AE04EF69C20C0F699
:10CBEC000100119004E04EF6A020C0F60100119057
:10CBFC00119A412003210823059306F019FB059B8C
:10CC0C004EF6A422C0F601020220049004210291E7
:10CC1C0006F00EFB0020ADF840000F900E9040F295
:10CC2C00C820C2F2000002684DF6FE21C0F60101D8
:10CC3C000EA803900AF04AF90299039A059B2D203D
:10CC4C0006F0F6FA0498059B4EF6AC22C0F60102EB
:10CC5C00052106F0EDFA40F2BC20C2F2000000689B
:10CC6C000690042830D80699DFE801F003161C2240
:10CC7C00280040F2C420C2F200000068062805D14A
:10CC8C004EF25750C0F60100119004E04EF22F50B6
:10CC9C00C0F6010011901CE04EF6B820C0F6010061
:10CCAC00119016E04EF6BC20C0F60100119010E079
:10CCBC004EF24D50C0F6010011900AE04EF2CC003D
:10CCCC00C0F60100119004E04EF22F50C0F60100A6
:10CCDC001190119A462005210823019306F0A8FA19
:10CCEC00019B4DF60132C0F6010202200621009193
:10CCFC0006F09EFA0099019B43F6D542C2F200025F
:10CD0C00412006F095FA019B4EF6C022C0F60102B6
:10CD1C000020072106F08CFA06F0C6FB08E04EF264
:10CD2C00DE02C0F6010200200221082306F080FA80
:04CD3C0012B080BDF4
:10CD400080B590B000208DF83F0068460123036055
:10CD50004DF61940C0F601004CF6D061C0F6000156
:10CD600006220DF070F98DF83E009DF83E00014658
:10CD70000591062800F28E800599DFE801F004088D
:10CD80000B122C86890001208DF83F0082E00EF006
:10CD900082FA7FE00DF023F80DF0F5FB0DF0F7FCC3
:10CDA00078E00DF01CF840F2EC40C2F20000008880
:10CDB000012808DB4EF2EC00C0F601000BF043F84E
:10CDC00006F069FD06E04EF2A360C0F60100002106
:10CDD0000DF08BF85EE00DF002F840F2EC40C2F28C
:10CDE00000000088012848DB4EF2EC00C0F601008C
:10CDF00004900BF028F8049843F6F002C2F2000207
:10CE0000002111704EF6A431C0F60101FFF730FA8F
:10CE100006F03EFE0CF0E3FF06F0D7FE0E900E98F3
:10CE200048B94EF69832C0F60102002002210823CC
:10CE300006F004FA20E000200390ADF834000C90D6
:10CE40000B900A9009900890079006900E9A4EF267
:10CE50009261C0F6010106A802900AF03DF8029A1C
:10CE600003980121082306F0E9F903994EF6B4303E
:10CE7000C0F601000DF039F806E04EF2A360C0F6EE
:10CE8000010000210DF031F804E010F0CEFC01E0CB
:10CE90000DF07BFA9DF83F0050B94DF6E432C0F634
:10CEA000010200200721082306F0C8F906F002FB62
:08CEB0009DF83F0010B080BDA9
:10CEB80028DC0108C4EB0108D8EB0108E8EB0108FD
:08CEC80033DC010856E2010809
:10CED00042DC0108C9E601085CE2010851DC0108F6
:08CEE000D2E6010866E2010838
:10CEE80083B002900020019002980090032820D877
:10CEF8000099DFE801F00209101748F21400C4F2A3
:10CF080001000068019014E048F21800C4F2010022
:10CF1800006801900DE048F21C00C4F201000068AE
:10CF2800019006E048F22000C4F201000068019078
:08CF3800FFE7019803B0704708
:10CF400080B598B008A8402101F070F80EF03BFCC5
:10CF500007F0BBFF0CF043FF4DF6A652C0F60102EE
:10CF60000021069108230793084606F067F9069802
:10CF7000079B43F62C42C2F20002282106F05EF91C
:10CF80000698079B4EF21632C0F601020121059168
:10CF900006F054F90599079B43F6DA42C2F2000203
:10CFA0003C2006F04BF90698079B4DF6AD52C0F6B3
:10CFB0000102022106F042F940F2D820C2F200003C
:10CFC000006848B94EF6DC42C0F60102402002215A
:10CFD000082306F033F912E040F2D820C2F2000034
:10CFE00002684EF22031C0F6010108A8049009F051
:10CFF00073FF049A40200221082306F01FF94DF622
:10D00000B851C0F6010108A800F080FF43F6E540E2
:10D01000C2F20000007801460391052834D8039934
:10D02000DFE801F0030B131B232B4EF6DC41C0F6A7
:10D03000010108A809F0FFFE26E04EF22631C0F6F5
:10D04000010108A809F0F7FE1EE04DF6BF51C0F639
:10D05000010108A809F0EFFE16E04EF23031C0F6EB
:10D06000010108A809F0E7FE0EE04DF6CA51C0F62E
:10D07000010108A809F0DFFE06E04EF6E441C0F623
:10D08000010108A809F0D7FE00200190032108AA99
:10D0900000920823029306F0D1F8009843F6E64187
:10D0A000C2F200010B784DF6D551C0F6010143F6EE
:10D0B000D542C2F2000209F00FFF009A029B0198CC
:10D0C000042106F0BBF80198029B4DF65C42C0F6C5
:10D0D0000102072106F0B2F806F0ECF918B080BDA5
:10D0E00080B5ACB0002020908DF8AF0068460123D9
:10D0F00003604EF6F040C0F601004DF6A801C0F600
:10D10000000106220CF09FFF014620988DF8AE101A
:10D110002A9029902890279026902590249023905B
:10D120009DF8AE0001462191062800F2B9832199AD
:10D13000DFE811F007000C001D00C0006C016E0359
:10D14000B40301208DF8AF0000F0AABB09F039F854
:10D150004DF65C42C0F6010200200721082306F0CC
:10D160006DF806F0A7F90DF010F900F099BB40F248
:10D17000D820C2F2000000681F90202800F28880AA
:10D180001F99DFE801F0115E8585668585856E85CE
:10D19000858585858585768585858585858585854E
:10D1A0008585858585857E006846012303604EF66A
:10D1B0000050C0F601004DF6C001C0F60001062285
:10D1C0000CF041FF8DF88B009DF88B000138014673
:10D1D0001E91052834D81E99DFE801F0030B131BBC
:10D1E000232B40F2D821C2F200014FF480100860D6
:10D1F00026E040F2D821C2F200014FF4001008608E
:10D200001EE040F2D821C2F200014FF48000086015
:10D2100016E040F2D821C2F200014FF4000008608D
:10D220000EE040F2D821C2F200014FF08070086099
:10D2300006E040F2D821C2F200014FF00070086011
:10D2400026E040F2D821C2F200014FF480100860BD
:10D250001EE040F2D821C2F200014FF480000860C5
:10D2600016E040F2D821C2F200014FF4000008603D
:10D270000EE040F2D821C2F200014FF08070086049
:10D2800006E040F2D821C2F200014FF000700860C1
:10D290000CF0A5FD0EF0C5FB0EF06DFC4DF65C42EA
:10D2A000C0F6010200200721082305F0C7FF06F0A1
:10D2B00001F9F5E243F6E540C2F2000000780028EB
:10D2C00045D16846012303604EF23A30C0F60100B2
:10D2D0004DF6D801C0F6000106220CF0B4FE8DF820
:10D2E0008A009DF88A00013801461D9105282ED834
:10D2F0001D99DFE801F0030A11181F2643F6E541E6
:10D30000C2F200010120087021E043F6E541C2F2BB
:10D310000001022008701AE043F6E541C2F2000164
:10D320000320087013E043F6E541C2F20001062035
:10D3300008700CE043F6E541C2F2000104200870D9
:10D3400005E043F6E541C2F20001052008700CF04B
:10D3500046FD43F6E540C2F2000000780138014680
:10D360001C91052846D81C99DFE801F003090F1825
:10D37000213C04200EF04BFE0EF025FA3AE040204E
:10D380000EF045FE0EF01FFA34E001204FF400418C
:10D39000002207F04BFF0EF016FA2BE001204FF4AD
:10D3A000803100220FF045F80EF00DFA22E0002047
:10D3B0001A900EF0F4FF0EF006FA1A9A0120199056
:10D3C0004FF480311B910FF034F819980EF0E7FFFD
:10D3D0000EF0F9F91A981B9A11460FF02AF80EF080
:10D3E000F2F907E001204FF48031002207F01EFF20
:10D3F0000EF0E9F94DF65C42C0F60102002007216B
:10D40000082305F01BFF06F055F849E243F6E54016
:10D41000C2F200000078002845D16846012303606D
:10D420004EF23A30C0F601004DF6D801C0F60001C8
:10D4300006220CF008FE8DF889009DF8890001385D
:10D440000146189105282ED81899DFE801F0030A43
:10D4500011181F2643F6E541C2F2000101200870B1
:10D4600021E043F6E541C2F20001022008701AE013
:10D4700043F6E541C2F200010320087013E043F6D1
:10D48000E541C2F20001062008700CE043F6E541D8
:10D49000C2F200010420087005E043F6E541C2F243
:10D4A0000001052008700CF09AFC43F6E540C2F23A
:10D4B00000000078013801461791052800F29C8190
:10D4C0001799DFE811F006003D007400B000F60087
:10D4D0005E01042016900EF02EFD16980EF0D7FC7B
:10D4E000014640F2A820C2F200000160006848B97D
:10D4F0004EF61052C0F6010200200421082305F068
:10D500009DFE1AE040F2A820C2F2000002684EF62A
:10D510000B01C0F6010123A8149009F0DDFC149A58
:10D52000002015900421082305F088FE15994EF27D
:10D530004C30C0F601000CF0D8FC0EF044F95BE171
:10D54000402013900EF0F7FC13980EF0A0FC01465B
:10D5500040F2A820C2F200000160006848B94EF60F
:10D560001052C0F6010200200421082305F066FED7
:10D570001AE040F2A820C2F2000002684EF60B0149
:10D58000C0F6010123A8119009F0A6FC119A002011
:10D5900012900421082305F051FE12994EF24C30EE
:10D5A000C0F601000CF0A1FC0EF00DF924E1012001
:10D5B0004FF400410F910022109207F0DAFE0F980D
:10D5C000109907F059FF014640F2A820C2F200006E
:10D5D0000160006848B94EF61052C0F60102002002
:10D5E0000421082305F02AFE1AE040F2A820C2F226
:10D5F000000002684EF60B01C0F6010123A80D9051
:10D6000009F06AFC0D9A00200E900421082305F011
:10D6100015FE0E994EF24C30C0F601000CF065FC80
:10D620000EF0D1F8E8E00EF046FE08F0F6F843F60A
:10D63000D040C2F200004EF61C01C0F6010100F01D
:10D6400045FCC0B14DF6F052C0F6010200200321A6
:10D65000082305F0F3FD4DF60F61C0F6010143F616
:10D66000D042C2F2000223A80C9009F035FC0C98BD
:10D6700001210CF03AFC0EF0C8FD4FF4803008F0A8
:10D6800017F960B101204FF480310A9100220B920A
:10D690000EF0CDFF0A980B990FF09BF806E04EF2C2
:10D6A0005E30C0F6010000210CF01FFC0EF08BF87C
:10D6B000A2E00EF000FE08F0B0F843F6D040C2F24F
:10D6C00000004EF62101C0F6010100F0FFFBC0B1E1
:10D6D0004DF6F052C0F6010200200321082305F0A8
:10D6E000ADFD4DF60F61C0F6010143F6D042C2F226
:10D6F000000223A8099009F0EFFB099801210CF022
:10D70000F4FB0EF082FD00200EF049FE0EF05BF8F7
:10D710004FF4803008F0CCF860B101204FF4803134
:10D720000791002208920EF082FF079808990FF0E7
:10D7300050F806E04EF25E30C0F6010000210CF019
:10D74000D4FB01200EF02BFE0EF03DF84FF480309C
:10D7500008F0AEF858B100204FF48032069211461E
:10D760000EF065FF069908460FF033F806E04EF21A
:10D770005E30C0F6010000210CF0B7FB0EF023F87C
:10D780003AE001204FF4803104910022059207F025
:10D79000F0FD0498059907F06FFE014640F2A820BD
:10D7A000C2F200000160006848B94EF61052C0F69F
:10D7B000010200200721082305F040FD1AE040F295
:10D7C000A820C2F2000002684EF60B01C0F601016B
:10D7D00023A8029009F080FB029A00200390052103
:10D7E000082305F02BFD03994EF24C30C0F60100E2
:10D7F0000CF07BFB0DF0E7FF4DF65C42C0F601023A
:10D8000000200721082305F019FD05F053FE47E02D
:10D810006846012303604EF23A30C0F601004DF62F
:10D82000D801C0F6000106220CF00DFC8DF888002E
:10D830009DF888000146019105282ED80199DFE85E
:10D8400001F0030A11181F2643F6E541C2F2000158
:10D850000120087021E043F6E541C2F200010220F8
:10D8600008701AE043F6E541C2F200010320087097
:10D8700013E043F6E541C2F20001062008700CE017
:10D8800043F6E541C2F200010420087005E043F6CA
:10D89000E541C2F200010520087001E00CF075FDC1
:08D8A0009DF8AF002CB080BD23
:10D8A80016DE010826E801086CE3010825DE0108F8
:08D8B80030DE010876E30108EF
:10D8C0001CED010820ED010824ED010828ED0108F8
:08D8D0002FE8010834E801080B
:10D8D8007CE301083FDE01084ADE010859DE010841
:08D8E80086E301082CED0108A4
:10D8F000CCED0108BFDE0108D4ED0108CADE010845
:0CD90000E0ED01083BE901081AE4010811
:10D90C00034C206804348047FBE701F0DAF8FEE7AB
:04D91C0014EE0108FC
:10D920000820006800BF00BF4EF60850CEF200008D
:0CD9300001490160FFF7EAFF00C0000899
:10D93C0008490A68002AFED41EF0040F0CBFEFF34E
:10D94C000880EFF3098042F000420A6081690231DD
:08D95C00816170472CED00E031
:10D964004FF07F4C90EA010F38D4431A3CBFC01AE1
:10D97400C918BCEB400F72D91CEA410F28D0C20D64
:10D98400B2EBD1534FF0004C4CEA00204CEA012199
:10D99400C3F1200C01FA0CFC31FA03F1401832BF38
:10D9A400013A5FEA300040F001005CEA406C04BFD9
:10D9B40010F4807F20F08000000A40EBC2504FF04A
:10D9C400807111EB400F38BF70476FF3160070473A
:10D9D4001CEA400F01D100F00040704781F0004183
:10D9E400431A3EBF83F00043C01AC918BCEB400F72
:10D9F40032D91CEA410F28D0C20DA2EBD1534FF00B
:10DA0400004C4CEA01214CEA0020C3F1200C11FA2D
:10DA14000CFC21FA03F118BF41F00101401A09D4AA
:10DA240017D0130AD2B2B0FA80F18840521A11DD2D
:10DA340002EB0322C0F31621400641EBC25038BF6B
:10DA4400704708BF20F0010070471CEA400F08BF70
:10DA540000207047D8077047BCEB410F03D0BCEBE4
:10DA6400400F08BF704740F20000C7F6C07070470F
:08DA740081F00041FFF774BFCF
:10DA7C004FF0FF0C1CEAD0521EBF1CEAD153FF2AF8
:10DA8C00FF2B28D01A444FF0004C90EA010313EA04
:10DA9C000C034CEA01214CEA0020A0FB01C1B1F1BE
:10DAAC00004F62F17F0238BF49004CEA416CFE2AFC
:10DABC0009D253EA11204CEAC07C28BFBCF1010307
:10DACC0040EBC2507047124244BF18467047FF20CB
:10DADC0043EAC050704710EACC5F08BF00F000402A
:10DAEC0011EACC5F08BF01F000410CEAD153FF2AC8
:10DAFC0018BFFF2B03D0484000F0004070470028AF
:10DB0C001EBFB0F1004F0029B1F1004F0DD0FF2A1C
:10DB1C0001D1420209D1FF2B01D14A0205D1484063
:10DB2C005FF0FF4161F31E00704740F20000C7F642
:04DB3C00C0707047FE
:10DB4000FF2313EAD0521EBF13EAD153FF2AFF2B43
:10DB500035D0D21A7F3281EA000C0CF0004C4FF025
:10DB6000004343EA002043EA012130B4431A3CBF9A
:10DB700001EB4303013A090AB3FBF1F505FB11334D
:10DB80001B02B3FBF1F001FB103300EB05201B027D
:10DB9000B3FBF1F505EB00205CEA500050EBC250FE
:10DBA00030BC002A08DDFF2A38BF70474FF0FF4025
:10DBB0001CF00041084370470CF00040704703EA36
:10DBC000D153FF2B07D1FF2A14D05FEA412C0DD08F
:10DBD0004FF4400016E0FF2A04D14300B3F17F4F19
:10DBE0000BD007E01A4305D0002B06D0484000F0C8
:10DBF000004070474FF4400004E0484000F000400F
:0CDC000040F4000040F0FE40704700BF00
:10DC0C0050EA0102520007D0884203D1400010F1C3
:0CDC1C00807F01D9002070470120704774
:10DC280042004B0012F1807F94BF13F1807F0CE01B
:10DC380050EA010252000AD003D2884280410130E2
:10DC480070478142804101307047002070470120B1
:04DC5800704700BF52
:10DC5C0042004B0012F1807F94BF13F1807F0CE0E7
:10DC6C0050EA0102520008D003D281428041404266
:10DC7C00704788428041404270470020704700BF87
:10DC8C0042004B0012F1807F94BF13F1807F0CE0B7
:10DC9C0050EA0102520008D003D28842804140422F
:10DCAC00704781428041404270470020704700BF5E
:10DCBC00420015D2120ED2F19E02202A05D2000289
:10DCCC0040F00040D04000217047203207D30102C1
:10DCDC0041F0004161FA02F0D1404840704702DD4A
:10DCEC000020002170476FF000000146704700BF14
:10DCFC00C1B1B1FA81F3D3F1BD02994010FA03FC22
:10DD0C0018BF41F00101D3F1200330FA03F319439A
:10DD1C00D2054B0642EB112038BF704708BF20F0EC
:10DD2C000100704768B1B0FA80F39840D3F19D02BE
:10DD3C00D205430642EB102038BF704708BF20F0D5
:04DD4C00010070471B
:10DD500001F000428B1AA3F16051B1F5801F0ADB7C
:10DD6000B1F17F6F09D242EAC102C10071F10041F5
:10DD700042EB507070471046704701285B4113F525
:10DD8000001F02D842F0FF407047C90041EA5070BE
:0CDD9000104340F4800040F080407047D9
:10DD9C00002B35D129B9B0FBF2FC0CFB120260460A
:10DDAC007047914215D22DE9F041B2FA82F39A40B4
:10DDBC009940D3F1200C30FA0CFC51EA0C0198403C
:10DDCC0000F04EF8280036FA03F200210023BDE8DB
:10DDDC00F081F0B5B1FBF2FC0CFB1211B2FA82F33C
:10DDEC009A409940D3F1200630FA06F63143984018
:10DDFC0000F036F8614628003200DA400023F0BD0E
:10DE0C00F3B5B3FA83FC49085FEA300013FA0CF35C
:10DE1C00DCF1200432FA04F423430CB41A0000F0B1
:10DE2C001FF80CBC33FA0CF3DCF11F0C35FA0CF5B3
:10DE3C0018BF013D03BCA5FB026705FB0377801BE4
:10DE4C00B941904271EB030C05D3821A71EB0303B9
:10DE5C00681C0021F0BD02000B0028000021F0BD61
:10DE6C00940D4FF6C2752D02B5FBF4F4D60A0136AB
:10DE7C0004FB04F5A5FB0656F64306EB0416550801
:10DE8C0032BF00277708013505FB1677A6FB07473D
:10DE9C007F0807EBC63714001500E7FB02457F1B14
:10DEAC004D1C0400E7FB014505FB1206A64284BF8E
:10DEBC00013DB618964224BF0135B61A704700BF13
:10DECC0050EA01039B0710D170B44FF00136F301F7
:10DEDC0050F8044B51F8045BAC4203D1A51BA5438D
:10DEEC001D40F5D070BC0438043910F8012B11F822
:10DEFC00013BD21A01D1002BF7D11046704700BF5D
:10DF0C00024650EA01039B070ED1F0B44FF00137E3
:10DF1C00FB0151F8044BE51BA5431D4002D142F80F
:10DF2C00044BF6E70439F0BC11F8013B02F8013B55
:08DF3C00002BF9D1704700BF72
:10DF4400411C82070CD010F8012BDAB1820707D0EC
:10DF540010F8012BB2B1820702D010F8012B8AB15C
:10DF640030B44FF00134E50150F8042B131B9343F4
:10DF74002B40F9D030BC04381BBAB3FA83F300EB5E
:08DF8400D3000130401A704780
:10DF8C00C9B2820709D010F8012B8A4203D0002AAB
:10DF9C00F7D1002070470138704770B44FF0013250
:10DFAC00D301514350F8044BA51AA5434C40A61A73
:10DFBC00A6432E431E40F5D070BC0438C9B210F8ED
:10DFCC00012B8A4203D0002AF9D100207047013876
:04DFDC00704700BFCB
:10DFE000844640EA010313F0030F16D18446202A29
:10DFF0000AD32DE9F007B1E8F807A0E8F807203ABE
:10E00000202AF8D2BDE8F007042A06D351F8043BD1
:10E0100040F8043B043A042AF8D22AB111F8013B33
:0CE0200000F8013B013AF9D1604670475E
:10E02C0000220B0011001A00844662B310F0030F9B
:10E03C0004D000F8011B013AF8D124E089B241EA7E
:10E04C00012141EA0141202A11D3203A2DE9F003A4
:10E05C000B460C460D460E460F4688468946A0E8F0
:10E06C00FA03203AFBD2BDE8F00320320BD0042A8D
:10E07C0005D340F8041B043A05D0042AF9D200F861
:0CE08C00011B013AFBD16046704700BF49
:10E09800000020410000C84200401C4620BCBE4C85
:08E0A800CA1B0E5AAEC59D749F
:10E0B00030B514469AB300204FF0604C86469CF869
:10E0C0000030002BFBD0A4EB0E03032B01EB0E0260
:10E0D00012D99378557811F80EE01B04D27843EAF0
:10E0E000052343EA0E0343EA0263CCF80030043010
:10E0F000A0428646E3D330BD012B01EB0E0208D0CF
:10E10000527811F80E30023043EA0223ACF80030A6
:10E11000EEE711F80E3001308CF80030E8E71046D9
:04E1200030BD00BF4F
:10E12400034B1B68181AB0FA80F04009704700BF0F
:04E13400183D002072
:04E1380040207047CC
:10E13C0085B00490BDF81200002840F0958004983A
:10E14C00ADF80A00BDF80A2041F6EC01C0F6010159
:10E15C0048F67E10C0F60100B2F5805FB8BF0846E5
:10E16C0003900398811C03910088ADF80800BDF85A
:10E17C00080028B1BDF80A00BDF80810884200DA82
:10E18C006FE00398811C03910088ADF806009DF8A0
:10E19C000700ADF804009DF80600ADF80600BDF8C8
:10E1AC000A00BDF80810BDF80620114488424EDA6A
:10E1BC00BDF8040001460091082847D80099DFE813
:10E1CC0001F005101B21272D33393F000398BDF8B2
:10E1DC000A10BDF80820891A30F81100ADF80A00B1
:10E1EC0034E0BDF80A00BDF80810411A01F0010135
:10E1FC00401AADF80A0029E0BDF80A001038ADF855
:10E20C000A0023E0BDF80A002038ADF80A001DE032
:10E21C00BDF80A003038ADF80A0017E0BDF80A0066
:10E22C001A38ADF80A0011E0BDF80A000830ADF854
:10E23C000A000BE0BDF80A005038ADF80A0005E002
:10E24C00BDF80A00A0F5E350ADF80A0009E0BDF8EE
:10E25C00040028B9BDF80610039800EB41000390A8
:0EE26C007FE7BDF80A000490049805B07047E3
:10E27A0080B586B000208DF8170008F07DFE8DF875
:10E28A0016009DF8160001281FD168460123036075
:10E29A004DF6DC60C0F601004CF2D011C0F6000168
:10E2AA001A460BF0CBFE8DF815009DF815000146B5
:10E2BA00049118B10498012804D005E001208DF8D2
:10E2CA00170001E00EF0FAFD47E09DF81600F8B9D4
:10E2DA006846012303604DF6DC60C0F601004CF28B
:10E2EA00D411C0F600011A460BF0A8FE8DF81500ED
:10E2FA009DF815000146039118B10398012804D02E
:10E30A0005E001208DF8170001E00CF0CFFF24E0B2
:10E31A006846012303604DF6DC60C0F601004CF24A
:10E32A00D811C0F6000102220BF088FE8DF8150004
:10E33A009DF815000146029130B10298012807D0D4
:10E34A000298022807D008E001208DF8170004E09F
:10E35A000CF0ACFF01E00EF0B1FD9DF8170006B01D
:02E36A0080BD74
:10E36C0097B08DF85B000020149040F20671C0F657
:10E37C000811099140F20121C0F203410891079064
:10E38C000690059104900391029041F20400C4F2AE
:10E39C0002000068C0F3810015901598019030B10F
:10E3AC000198012809D0019802280CD052E041F2C2
:10E3BC000020C0F27A00139051E041F20020C0F22C
:10E3CC007A0013904BE041F20400C4F202000068A2
:10E3DC0000F480300F900F98B0F5803F16D141F2C9
:10E3EC000020C0F27A000C9041F20400C4F202004A
:10E3FC00006800F400300E900E98B0F5003F04D188
:10E40C0040F60010C0F23D000C9004E040F6001005
:10E41C00C0F23D000C9041F20400C4F2020001680D
:10E42C00C1F383410D9100680001002803D50D98BC
:10E43C0040F010000D900D980E2803D80D98023066
:10E44C000D9002E00D9801300D900C980D994843F9
:10E45C00139004E041F20020C0F27A00139041F2D4
:10E46C000400C4F202000168C9B209090B910B9AAD
:10E47C0006A9895C0A9113990A9AD14012910168F4
:10E48C00C1F302210B910B9A04A9895C0A91129990
:10E49C000A9AD14011910068C0F3C2200B900B99DD
:10E4AC0002A8405C0A9012980A99C84010909DF8F6
:10E4BC005B0001460091032810D80099DFE801F0B9
:10E4CC000205080B1398149008E01298149005E0BC
:10E4DC001198149002E010981490FFE7149817B05C
:02E4EC00704777
:10E4EE0080B584B06846012303604DF6F260C0F635
:10E4FE0001004CF2E011C0F6000102220BF09CFD6F
:10E50E008DF80F009DF80F0001460291012806D0EC
:10E51E000298022806D00298032806D007E008F0D9
:10E52E009BFD04E008F056FD01E00BF027FF04B060
:02E53E0080BD9E
:10E5400080B5EAB000208DF8A7016846012303607A
:10E550004EF27860C0F601004CF6B861C0F60001DA
:10E5600006220BF070FD8DF8A6010BF038FC9DF82B
:10E57000A60101460D91062800F287810D99DFE87A
:10E5800011F007000B00280027012C013101820146
:10E5900001208DF8A70178E14EF2EC00C0F60100F1
:10E5A0004EF2CE51C0F60101FDF762FE0BF017FCF2
:10E5B0000CF0A7F90CF0E1FA50B90BF010FC4EF298
:10E5C000DA12C0F6010200210823084604F036FEE4
:10E5D0005BE14EF2EC00C0F601004EF2CE51C0F607
:10E5E0000101FDF745FE0BF0FAFB0CF08AF90CF087
:10E5F000C4FA30B94EF66C30C0F6010001210BF0C0
:10E6000074FCFEF769F840F2EC40C2F200000088AA
:10E610000128C0F2D5800BF0E2FB4EF68832C0F63E
:10E62000010200210823084604F008FE43F6F0002A
:10E63000C2F200002F210FF06EF96890689850B177
:10E64000689801306890689943F66C40C2F2000007
:10E65000FFF75CFC09E043F66C40C2F2000043F6B1
:10E66000F001C2F20001FFF751FC4FF0FF3067905C
:10E670006798411C679143F66C40C2F20000405C11
:10E6800080B1679943F66C40C2F20000405C2E28CE
:10E6900007D1679A43F66C41C2F20001002088540A
:10E6A00000E0E5E743F6F000C2F200000C904EF205
:10E6B0008561C0F6010143F66C42C2F2000208F027
:10E6C0000BFC0C9800218DF89B1120A902F029FB6E
:10E6D000002868D10CF09DFF014640F2CC20C2F228
:10E6E0000000016000681F901F9800285BD41F9BEA
:10E6F00043F66C42C2F200026846026043F6F00044
:10E70000C2F200000B904EF2F411C0F6010108F0C5
:10E71000E3FB0B9820A902F004FB00283FD10FA8CF
:10E7200009904021FFF782FC09981F9A4EF20A21B6
:10E73000C0F6010108F0D0FB099A002001210A91DE
:10E74000082304F07BFD0A988DF89B0105F0A0F9E1
:10E7500005F03BFA0E900E9848B94EF69832C0F686
:10E76000010200200221082304F068FD16E00E9A41
:10E770004EF29261C0F601010FA8079008F0ACFBC1
:10E78000079A002008900221082304F057FD0899F9
:10E790004EF2C810C0F601000BF0A7FB03E01F9873
:10E7A00001381F90A0E79DF89B0140B94EF220224E
:10E7B000C0F6010200200121082304F03FFD06E01D
:10E7C0004EF2A360C0F6010000210BF08EFB5CE06E
:10E7D0000320012105F0BEFA57E00520012105F0D4
:10E7E000B9FA52E0032005900121019105F0B2FA37
:10E7F0004DF6E432C0F60102039200200690072194
:10E8000002910823049304F019FD04F053FE0BF069
:10E81000E6FA049B06994EF23622C0F6010208463B
:10E8200004F00CFD0199049B06984DF6F732C0F6F2
:10E83000010204F003FD049B06984DF60A42C0F65F
:10E840000102022104F0FAFC049B059906984EF29D
:10E85000B462C0F6010204F0F1FC049B06984EF28B
:10E860004822C0F60102042104F0E8FC0299039A50
:10E87000049B069804F0E2FC04F01CFE059806993F
:10E8800005F068FA01E00BF080FD9DF8A70160B982
:10E890004DF6E432C0F6010200200721082304F0FF
:10E8A000CDFC04F007FE0BF070FD9DF8A7016AB0E7
:02E8B00080BD29
:10E8B20080B582B00520ADF8040008F0E1FB8DF8C8
:10E8C20006009DF8061000201D29009009D0BDF811
:10E8D2000400411E88B2ADF80410002818BF0120C0
:10E8E20000900098C0070028E7D1BDF8040068B185
:10E8F2004EF29200C0F601000FF068F89DF8060093
:10E9020043F6F341C2F2000108700CE043F6E8411D
:10E91200C2F20001002008704EF28540C0F60100EC
:10E9220001210BF0E1FA08F0FDFB40F20000C2F217
:10E9320000004EF29A41C0F60101012208F0A4FD46
:10E942008DF807009DF807000D2806D14EF29B4076
:10E95200C0F601000FF03AF813E09DF8070040B14D
:10E962009DF807104EF6B810C0F601000FF02EF811
:10E97200FEE79DF807104EF6CC10C0F601000FF02E
:06E9820025F802B080BD83
:10E9880080B582B08DF807009DF807000138014670
:10E998000091102800F28E800099DFE801F0091438
:10E9A8001F2A358B8B404B608B8B8B8B8B75800034
:10E9B8004FF4907001210EF08CFA40F23F10A5211F
:10E9C8000EF087FA7DE04FF4907002210EF081FA84
:10E9D80040F23F10A5210EF07CFA72E04FF49070DF
:10E9E80003210EF076FA40F23F10A5210EF071FADD
:10E9F80067E04FF4907004210EF06BFA40F23F107C
:10EA0800A5210EF066FA5CE04FF4907005210EF037
:10EA180060FA40F23F10A5210EF05BFA51E04FF486
:10EA2800907008210EF055FA40F23F10A5210EF023
:10EA380050FA46E04FF4907009210EF04AFA40F27D
:10EA48002110AA210EF045FA4FF4917055210EF0CD
:10EA580040FA40F23F10A5210EF03BFA31E04FF4A6
:10EA680090700A210EF035FA40F2251062210EF05E
:10EA780030FA4FF4937004210EF02BFA40F23F1055
:10EA8800A5210EF026FA1CE04FF4907010210EF02C
:10EA980020FA40F23F10A5210EF01BFA11E04FF4C6
:10EAA800907011210EF015FA40F23F10A5210EF0DA
:10EAB80010FA06E04EF66400C0F6010001210BF0E2
:06EAC80010FA02B080BD4F
:10EACE0080B582B00020019008F03CFC04F0C1FC3F
:10EADE000BF0ACF90BF07CF904F0CEFCFFF7E2FE84
:06EAEE00FFF7FEFCFCE74F
:10EAF40080B586B000208DF81700684601230360B6
:10EB04004EF6C000C0F601004DF6F001C0F600015B
:10EB140007220BF096FA8DF816009DF816000146B0
:10EB24000491072800F2A3800499DFE801F00408A7
:10EB34000B26364D626501208DF8170097E00EF024
:10EB4400C6FA94E04EF2BA32C0F60102002108235C
:10EB54000393084604F070FB04F0AAFC0BF03DF9A3
:10EB64000920FFF70FFF0420FFF70CFF0398FFF7BE
:10EB740009FF402007F02AFE79E04EF66052C0F605
:10EB8400010200210823084604F056FB04F090FC1F
:10EB94000BF023F90EF0FBFA69E007F0C8FE48B168
:10EBA4004DF6A262C0F6010214200121082304F0EC
:10EBB40043FB08E04DF6A562C0F6010214200121D2
:10EBC400082304F039FB52E043F6F001C2F20001DD
:10EBD400002008704EF21840C0F601004EF6D10134
:10EBE400C0F60101FDF742FB0BF0F7F807F0F0FE69
:10EBF4003DE00EF03EFB3AE04EF6E202C0F60102C2
:10EC0400002102910823084604F016FB04F050FC8E
:10EC14000BF0E3F8029843F6F001C2F20001087029
:10EC24004EF21840C0F601004EF6AC51C0F6010198
:10EC3400FDF71CFB0BF0D1F80BF0CFF80EF0DFFB67
:10EC44000EF04FFC48B14DF6A262C0F6010214204A
:10EC54000121082304F0F0FA07E04EF6BC50C0F698
:10EC6400010000210BF03FF901E00EF09CFC9DF83F
:10EC7400170050B94DF6AC62C0F60102002007211E
:10EC8400082304F0D9FA04F013FC9DF8170006B029
:02EC940080BD41
:10EC960082B08DF8070001208DF806009DF8070068
:10ECA6000146009138B10098012803D00098022847
:10ECB60009D008E007E043F6F240C2F2000000780F
:0EECC6008DF80600FFE79DF8060002B07047CB
:10ECD4002DE9F04F8DB00592884682460020CAF88F
:10ECE40000000DF11A0BABF101000190CDF810A05A
:10ECF40018F8011B252906D0002900F0E3855046A9
:10ED04000EF01BFEF4E70025404618F8012BA2F193
:10ED14002003102B0DD88021DFE803F0091B1B19F9
:10ED24001B1B1B101B1B31131B151B1B1700402126
:10ED34000DE05E2A0DD14FF4805108E04FF40041FC
:10ED440005E0202103E0102101E04FF400710D43A0
:10ED5400DAE700F10108A2F13000C0B209281DD899
:10ED6400002101EB810002EB4000A0F1300118F812
:10ED7400012BA2F13000C0B20A28F2D30BE0059AAD
:10ED840052F8041B0592002944BF45F0100549427E
:10ED9400427800F1020821EAE17700E000272E2AF8
:10EDA4000DD1404610F8012B2A2A0BD1059898F86A
:10EDB400012050F8049B059008F1020817E04FF079
:10EDC40000091DE0A2F13001C9B24FF00009092980
:10EDD40013D809EB890102EB4101A1F1300910F8C4
:10EDE400012BA2F13001C9B20A29F2D38046B9F14C
:10EDF400000F58BF45F4807502E0804645F48075E5
:10EE0400A2F16800C1B2C00140EA5100C0B20928B1
:10EE14002AD8DFE800F0081417292929052929052B
:10EE240018F8012B20E0404610F8012B682A15D170
:10EE340098F8012008F1020845F0080514E018F8D4
:10EE4400012B08E0404610F8012B6C2A09D198F8F0
:10EE5400012008F1020845F0020505E045F004052B
:10EE640001E045F001058046462A1FDDA2F163005A
:10EE740015282FD8DFE810F04800170045002300BC
:10EE8400A001160017001600160016001600570001
:10EE940063006D00160016007D0016008200160047
:10EEA4001600360024E745F480456BE0442A09DD6A
:10EEB400452A24D0462A7FF41BAF45F4005545F477
:10EEC40000657BE1252A40F05582504625210EF04D
:10EED40034FD0DE7472A00F06D81582A7FF408AF0E
:10EEE40045F40055E8054FEA056048BF25F4007570
:10EEF400782A43F2580108BF43F2780126E045F42A
:10EF0400005545F4806559E10598013F10F8044B1C
:10EF14000590504629463A4607F0D3FF504621460D
:10EF24000EF00BFDBDE1280700F12882A80700F1CF
:10EF34007582059A1068DAF80010016023E2E8058A
:10EF44004FEA056048BF25F40075302101EAE073FB
:10EF540019E02806232101EAE070CDE90270059941
:10EF640045F4807551F8040B059100214FF0080910
:10EF7400BAE0059850F8046B059071E1E80548BFC4
:10EF840025F40075002305F002006904CDE902733D
:10EF940004D450B90598031D00210DE0A8B90599C2
:10EFA40051F8040B0591C11717E00598073020F0BC
:10EFB400070000F10803416800686F0715D415F0D5
:10EFC40008071CBFC0B2002111E00598073020F0EB
:10EFD4000703596853F8080B05936B0709D415F018
:10EFE40008031CBFC0B2002105E080B200210593D4
:10EFF40013E000B2C113002907DBAB060BD46B0688
:10F00400039F48BF2027039707E00023404263EB98
:10F0140001012D2300E02B230393EB0548BF25F4C6
:10F024000075EB0558BF4FF0010900276E2A23DD58
:10F034006F3A092A00F27E80DFE802F005567C7CF4
:10F044007C7C247C7C5650EA010272D0C20842EADD
:10F05400417200270624134664F3DF000BF807000F
:10F064000137CE0852EAD1004FEAD20040EA467294
:10F0740018463146EFD15DE0582A35D0642A18BFCE
:10F08400692A57D150EA010253D005F4004B0027F6
:10F094000E460446BBF1000F0AD007F00300032814
:10F0A40006D10DF11A0A2C200AF80700013701E0F5
:10F0B4000DF11A0A204631460A220023FEF76CFE9F
:10F0C40000EB8002A4EB420242F030020AF807206F
:10F0D4000137D4F109024FF00002B241DDF810A06B
:10F0E400D6D30DF11A0B25E050EA010221D015F414
:10F0F40000524EF6EC52C0F6010204BF4EF6FC522A
:10F10400C0F601024FEA101343EA01734FF00007FF
:10F1140000F00F061846935D0BF8073001370E090F
:10F1240050EA11114FEA101141EA06733146EFD14A
:10F1340000E00027DDE90201C01BFF2988BF013878
:10F1440000290A4618BF0122801AA9EB070222EA05
:10F15400E274061BA80506D450462946324607F039
:10F16400B0FE03990026FF2904D9090A50460EF07F
:10F17400E4FB039911B150460EF0DFFB50462946DB
:10F18400324607F09EFE50463021224607F08AFEA2
:10F19400012F019C05DBE15D50460EF0CEFB013FE3
:10F1A400F9DCE8067FF5A4AD50462021324607F08D
:10F1B40079FE9DE545F4005545F44065E80558BFE2
:10F1C4004FF0060905F44060A0F54060B0FA80F005
:10F1D400B9F1000F08BF4FEA50190598073020F025
:10F1E4000704D4E90001FEF7B1FD064604F1080066
:10F1F400059030460EF021FB80B130460021FEF729
:10F2040043FD15F40051C8B14EF64816C0F6010688
:10F2140004BF4EF64D16C0F601061FE0304607F057
:10F2240048FD002846D0A8044EF60C66C0F6010638
:10F234005CBF4EF61066C0F601060FE04EF65212A1
:10F24400C0F6010210464EF65711C0F6010112BF76
:10F25400561C08464E1CA90648BF064625F4807570
:10F26400002E04BF4DF6D566C0F60106E80503D4AA
:10F274003046FEF765FE03E0304649460EF025FBB6
:10F28400044625F400753F1A504629463A4607F0CD
:10F2940018FE34B116F8011B50460EF04EFB013C2B
:10F2A400F8D1E8067FF524AD504620213A4607F010
:10F2B400F9FD1DE5029730460EF0C7FA0446002812
:10F2C40018BF86F0004630460CA90EF0C0FA0C9820
:10F2D40000EB400046F26761C6F2666180FB010103
:10F2E400881000EBD1770C97002C18BF45F060050F
:10F2F40030460021FEF788FCC0B9781C07F0A4FD55
:10F3040001463046FEF7A8FC20B10C98411C0C9134
:10F314000230F3E70C9807F097FD01463046FEF7FC
:10F32400B3FC18B10C9801380C90F4E705F4406470
:10F33400B4F5806F29D0B4F5406F029F05D10C98C5
:10F344008145C8BF10F1050F21DD680540F20004B6
:10F35400C4F2201440F11D810C98C1438944B9F1D1
:10F36400100FA8BF4FF010090E2840F3F4804FF09F
:10F3740000090EE1002A7FF4BBACB4E2059A1068E0
:10F38400DAF80010017010464FE00C98029F26280E
:10F3940007D1304647F29961C7F69661FEF7CEFB76
:10F3A40005E0404207F050FD3146FEF765FB064696
:10F3B4000021FEF729FCE0BB30460EF03EFA00289F
:10F3C4007FF41BAF0394304640F2000BC4F2201BC1
:10F3D4005946FEF727FC60B10C9F30465946FEF7AC
:10F3E400ADFB06465946FEF71DFC01370028F4D153
:10F3F4000C9730464FF07E51FEF746FCE8B10C9F67
:10F4040030465946FEF738FB06464FF07E51FEF76C
:10F414003BFC013F0028F3D10C970EE0059BDAF882
:10F4240000101868002206C0184604300590FFF743
:10F434005FBC40F2000BC4F2201BB4F5406F4C4695
:10F4440008BFB4F1010438BF4C46604207F0FCFC2D
:10F454004FF0FF3107F034FC3146FEF781FA814664
:10F464005946FEF7DFFB38B10C9801300C90484642
:10F474005946FEF763FB8146ECB305F40860B0F52A
:10F48400006F39D1102CA8BF1024204607F0DCFCF3
:10F494004946FEF7F1FAFEF70FFC064608432AD068
:10F4A4000F464CF6CD42CCF6CC42A6FB0201531ECD
:10F4B40006FB031107FB0211490841EAC0714FEA38
:10F4C4003000D0F1993049F69910C1F6991088416D
:10F4D40012D3304639460A220023FEF75DFC064665
:10F4E4000F460A220023FEF757FC013C04D052EADF
:10F4F4000300EED000E0002402980C9E001B05F0EF
:10F504008001214318BF0121401A421FE80403D49B
:10F51400CB4602940127BDE045F25650C5F2555042
:10F5240086FB000101EBD17000EB4000301A023081
:10F53400042800F2A780DFE800F00398A8039800ED
:10F54400013E0C96484659461746FEF795FA8346FF
:10F554007A1E02279BE028061BD4B9F1000F3FF462
:10F5640006AF484607F070FC3146FEF785FA4FF0C7
:10F574007C51FEF7F5F90EF07AF9214607F0B5FB58
:10F584000021FEF741FBA9F101090028E5D109F1A9
:10F594000109C9F100010C9810388842B8BF084627
:10F5A40007F052FC4FF0FF3107F08AFB3146FEF7BB
:10F5B400D7F904460C98013007F046FC0146204672
:10F5C400FEF74AFB0C99002818BF0131002911D419
:10F5D400112913DBA1F110000C90C1F1100007F008
:10F5E40033FC2146FEF748FAFEF766FB06468B46D7
:10F5F400002411E000260C96B3460DE000200C9088
:10F604002046FEF759FB06468B46FEF775FB01467E
:10F614002046FEF72DFA044625F480634CF23010A0
:10F62400C0F600000830002700F10801013705C8C2
:10F63400301A7BEB02000846F6D200940298A0EB45
:10F64400090005F0800151EA090118BF012115F0F4
:10F65400600218BF4FF0FF32511A0C9ACDF808908F
:10F66400891A0844C11B99462FE0023E0C9648466D
:10F674000021C4F2C8211746FEF7FEF98346BA1EDC
:10F68400032704E0CB46002701E0CB46012724EA08
:10F69400E474029425F4006915F0600F18BF013A70
:10F6A400304614460EF00DF96328C8BF013C5D4690
:10F6B4005846FEF701FB06468B46FEF71DFB014646
:10F6C4002846FEF7D5F92146009021EAE17419F4A1
:10F6D400047F4CF23015C0F6000508D1012906DB81
:10F6E400504620210EF029F9013CF9D1002409F0FB
:10F6F40040005FEA896102D440B1202103E02D215A
:10F70400002808BF2B2150460EF017F95FEAC960A4
:10F7140007D434B1504630210EF00FF9013CF9D131
:10F724000024013F05EBC70003C8321A7BEB01023A
:10F7340001D2302208E03022361A6BEB010B013281
:10F74400331A7BEB0103F7D2D1B250460EF0F5F831
:10F75400002FE6D1CDF80C9019F400690BD00C9869
:10F76400012808DB01380C90504630210EF0E5F8F2
:10F774000C980028F6DCDDE9026000F080003043DC
:10F784000DF11A0B44D050462E210EF0D6F8102756
:10F79400102EB8BF374627EAE7750C99B9F1000F68
:10F7A400284618BF401A07F04FFB012F26DB0146FD
:10F7B4000098FEF761F9FEF77FFA06460F46A94660
:10F7C400A9F101094CF23010C0F6000000EBC900A9
:10F7D40003C8321A77EB010201D2302207E030224B
:10F7E400361A8F410132331A77EB0103F8D2D1B2C2
:10F7F40050460EF0A2F8B9F1000FE1D10299481B6E
:10F8040006D06E1A504630210EF097F80136F9D31F
:10F81400039948054BD588044CBF452165215046C2
:10F824000EF08BF80C98002805DB50462B210EF0C7
:10F8340084F80C9806E050462D210EF07EF80C98C2
:10F8440040420C90642815DB48F21F56C5F2EB16B3
:10F85400A0FB0601302000EB511150460EF06DF86C
:10F864000C9880FB0612511101EBD271642201FB4A
:10F8740012000C9046F26766C6F2666680FB0601CB
:10F88400881000EBD17000F1300150460EF055F8AD
:10F894000C9880FB0612911001EBD27101EB8101EF
:10F8A400A0EB410000F1300150460EF046F8002C68
:10F8B4003FF41EAA504620210EF03FF8013CF9D136
:10F8C400FFF716BADAF80C0028B1DAE9001291420F
:10F8D4003CBF00224254504607F0D9FADAF800003F
:10F8E4000DB0BDE8F08F504607F0D1FA4FF0FF306D
:02F8F400F6E735
:10F8F60082B08DF8070001208DF806009DF80700FC
:10F906000146009138B10098012803D000980228DA
:10F9160013D012E011E043F6F340C2F20000007883
:10F926001D2802D100208DF806009DF8060043F63A
:10F93600F241C2F200010870FFE79DF8060002B02E
:02F94600704708
:10F9480080B586B08DF817000491039202939DF854
:10F9580017000146009138B10098012803D000989B
:10F96800022828D027E026E00298012809D1049827
:10F97800039949024FF4007209F03DFB8DF8060027
:10F9880009E0049803994902029B4FF4007202F0BF
:10F998009FFD8DF806009DF806001D2807D103F08D
:10F9A80096F800B1FBE700208DF8070002E004207C
:0EF9B8008DF80700FFE79DF8070006B080BD40
:10F9C60088B006904FF0FF300190069800680590C9
:10F9D6000490059810B9019807903FE00498411CDF
:10F9E600049100788DF80F009DF80F100020202953
:10F9F600009005D39DF80F003A3818BF01200090FB
:10FA06000098C0070028E9D19DF80F003A281DD1BB
:10FA1600012002900598007830280CDB05980078C4
:10FA2600392808DC059802300499884203D10598E4
:10FA36000078303802900298002804DC0298019081
:10FA46000498069908600198079007E043F6F0408D
:10FA5600C2F200000078019001980790079808B05C
:02FA66007047E7
:10FA680080B5ADF51A7D989097918DF85B2298989E
:10FA780018B909208DF867025AE19DF85B0200F079
:10FA88003F008DF85B029DF85B2297A889A907F0D3
:10FA98003CFD8DF85A029DF85A02002840F03E813C
:10FAA80089988A90899903A8C86097998AA807F0C5
:10FAB80006FF8DF85A029DF85A0238B99DF853028C
:10FAC8000006002802D506208DF85A029DF85B0230
:10FAD80010F01C0F69D09DF85A0278B19DF85A02AF
:10FAE800042804D18AA800F028F98DF85A029DF854
:10FAF8005B0240F008008DF85B0210E09DF82E02D2
:10FB080010F0110F03D007208DF85A0207E09DF876
:10FB18005B024007002802D508208DF85A029DF89C
:10FB28005A02002840D19DF85B02000700283BD507
:10FB380007F061FC859091980E30859907F04FFF8A
:10FB480091981630859907F04AFF8998919900F0A5
:10FB5800E9F9889091992020C87289989199002292
:10FB6800029200F0F8F9029991981C3007F037FFDB
:10FB780089990120C8708898B0B18998406B8490A1
:10FB880088998AA8002200F0FDF98DF85A029DF89C
:10FB98005A0248B98998849900F05FFA8DF85A0298
:10FBA800889801388999086117E09DF85A02A0B928
:10FBB8009DF82E02C006002803D504208DF85A02AD
:10FBC8000BE09DF85B028007002806D59DF82E0201
:10FBD800C00710B107208DF85A029DF85A0288B95B
:10FBE8009DF85B020007002805D59DF85B0240F0F0
:10FBF80040008DF85B028998406B9899086291984B
:10FC0800989948629DF85A02002840F087808998A0
:10FC1800919900F087F99899886091981C3007F0BD
:10FC280000FF9899C8608998989908608998C08851
:10FC3800989988809DF85B02989908749899002093
:10FC480048749899C86198994861989828304FF4F1
:10FC58000071FEF7E7F99DF85B02800600285DD584
:10FC68009898C068002859D09899C86848618998B8
:10FC78004089400287909898806886909898C068D4
:10FC880083909DF85A120020019031B98399879A80
:10FC98000020914288BF012001900198C007A8B1B7
:10FCA8009898869900F002FA86908698012802D8DA
:10FCB80002208DF85A028698013010B901208DF87B
:10FCC8005A0287998398401A8390DAE78698989918
:10FCD80088619DF85A0208BBBDF80C02C005E8B15E
:10FCE8008998869900F06FFA8490849818B9022050
:10FCF8008DF85A0212E08498839900EB5120989964
:10FD0800C86189984078989A02F12801D26901233C
:10FD180007F075FB10B101208DF85A029DF85A02C0
:10FD280010B19899002008609DF85A028DF8670272
:0AFD38009DF867020DF51A7D80BDED
:10FD420080B590B00E900E9800680C900E9890F8C6
:10FD52002B0010F0A00F03D006208DF83F00E0E04A
:10FD620000200A900C98C0680A9930F8110018B166
:10FD72000A9801300A90F5E70E9A106A516A926A5F
:10FD82000892079106909DF82300C00790B30E9940
:10FD9200402081F82B0001200B900B98632814D887
:10FDA2000E9820300C99CA680B9B06A908F0F2FA4B
:10FDB2000E9808F0EFF98DF837009DF8370000B182
:10FDC20003E00B9801300B90E7E70B98642803D10E
:10FDD20007208DF83F00A4E09DF83700042804D0E6
:10FDE2009DF837008DF83F009BE09DF823000E99A7
:10FDF20081F82B009DF82300800700280CD50A9873
:10FE02000C304EF64F41C4F6C461A0FB0101012043
:10FE120000EB9100049001E0012004900498099005
:10FE22000E98099901F080FC8DF837009DF8370093
:10FE3200002844D109980138099000283FD00E9833
:10FE42000169099AA1EB421108F03CF88DF83700DC
:10FE52009DF8370098BB0E98203008F07FFA8DF895
:10FE620017000C980E99896900F0FAF88DF837009E
:10FE72009DF8370000B122E00C98C0680E99C9695C
:10FE82009DF824209DF8173008F02EFB0C990120D4
:10FE9200C8700E98002108F0D3F88DF837009DF84D
:10FEA20037100020039031B90998013809900028D1
:10FEB20018BF012003900398C0070028D1D19DF8F4
:10FEC200370050BB0C980E99896900F0C9F88DF87B
:10FED20037009DF8370000BB0E98C16901910020E0
:10FEE2000290C861886148610861C86088604860A2
:10FEF20008600E9BD969186A5A6AD3F82730C1F88C
:10FF020007304A6008600E9991F82B0000F0180043
:10FF1200C96908730C990120C8709DF837008DF8E3
:0AFF22003F009DF83F0010B080BDC5
:10FF2C0080B584B00390029102981A3008F01BF946
:10FF3C00019003980078032808D10298143008F037
:10FF4C0012F90146019840EA01400190019804B071
:02FF5C0080BD66
:10FF5E0080B584B003900291019202981A30BDF8D8
:10FF6E00041007F053FF03980078032805D1029878
:0EFF7E001430BDF8061007F049FF04B080BD36
:10FF8C0080B588B006900591049200208DF80F0082
:10FF9C000698006801900598022804D305980199E9
:10FFAC00C969884203D302208DF81F004FE00498E2
:10FFBC0078B1019804994FF0FF3208F0EEFA8DF801
:10FFCC000F009DF80F0020B19DF80F008DF81F0059
:10FFDC003DE00698059900F067F80290029800B988
:10FFEC0032E00298012803D102208DF81F002EE088
:04FFFC000298013036
:020000040801F1
:1000000018B901208DF81F0027E0019805990022FA
:1000100008F0C9FA8DF80F009DF80F0020B19DF887
:100020000F008DF81F0018E001994869C96902396D
:10003000884208D2019948690130486101990879DC
:1000400040F0010008710298059005980199C9696E
:100050008842C4D300208DF81F009DF81F0008B00F
:0200600080BD61
:1000620080B584B00390029100208DF807000298B9
:100072000399496B884218D0039808F05DFB8DF80C
:1000820007009DF8070080B9039948783831029A31
:10009200012307F0B7F928B14FF0FF300290012099
:1000A2008DF807000298039948639DF8070004B091
:0200B20080BD0F
:1000B40080B588B00790069107980068029006986A
:1000C400022804D306980299C969884202D3012000
:1000D400039077E04FF0FF300390029800780146D8
:1000E4000191012806D00198022840D001980328E4
:1000F40050D065E006980490049800EB50000490FA
:100104000298816A049A01EB5221FFF7A8FF00B11B
:1001140058E0029804990A466FF35F2210440131B3
:10012400049190F8380005900298816A049A01EBD2
:100134005221FFF794FF00B144E0029804996FF351
:100144005F21084490F83810059840EA0120059092
:100154009DF81800C00718B105980009009003E045
:1001640005986FF31F300090009803902AE00298DE
:10017400816A069A01EB1221FFF771FF00B121E0B9
:1001840002989DF8181000EB4100383007F0EFFF9B
:10019400039017E00298816A069A01EBD211FFF7E7
:1001A4005EFF00B10EE00298069901F07F0100EBBA
:1001B4008100383007F037FC20F07040039001E0F4
:0A01C40001200390039808B080BDED
:1001CE0083B0019000910098023800900098019938
:1001DE00C9690239884202D30020029006E00198D4
:1001EE00026B4089009900FB01200290029803B037
:0201FE00704748
:1002000080B58EB00C900B910A9209930B980090D8
:100210000999002008600C9807A907F020FC8DF8C8
:1002200023009DF8230020B90C98407C8DF8230012
:1002300020B19DF823008DF83700F2E00C98007C87
:10024000C00718B907208DF83700EAE00C99C86894
:100250004969401A04900A980499884201D904987F
:100260000A900A98002800F0D9800C98808AC0056E
:10027000002840F0A9800C9841690798408901380E
:1002800000EA51200190019800BB0C98406918B910
:100290000C988068069004E00C988169FFF70AFFCB
:1002A00006900698012805D80C99022048748DF80C
:1002B0003700B6E00698013028B90C99012048743F
:1002C0008DF83700ADE006980C99886107980C9975
:1002D0008969FFF77CFF0590059828B90C990220E1
:1002E00048748DF837009CE0019905980844059002
:1002F0000A98400A02900298A8B30198029908440B
:1003000007994989884204D9079840890199401A78
:100310000290079840780099059A029B07F073F8BD
:1003200028B10C99012048748DF8370079E00C98B9
:10033000007C0006002812D50C98C0690599401A67
:10034000029988420BD200980C99CA69059BD21A6F
:1003500000EB422028314FF40072FDF741FE029875
:100360004002039047E00C98C0690599884228D064
:100370000C98007C0006002814D5079840780C9A49
:1003800002F12801D2690123FFF7DEFA28B10C99A6
:10039000012048748DF8370043E00C99087C00F088
:1003A0007F000874079840780C992831059A01233A
:1003B00007F029F828B10C99012048748DF837000E
:1003C0002FE005980C99C8610C9840696FF35F2085
:1003D000C0F50070039003980A99884201D90A98E1
:1003E000039000980C994A696FF35F2211442831F9
:1003F000039AFDF7F5FD03990A98401A0A90039AAB
:10040000099908681044086003990098084400900E
:10041000039A0C9948691044486122E700208DF83E
:0A04200037009DF837000EB080BDD4
:10042A0080B588B0069005910698006800900598F6
:10043A0060B9009800690290029820B10298009968
:10044A00C969884201D3012002901AE006980599E9
:10045A00FFF72BFE04900498012802D80120079088
:10046A00A6E00498013010B904980790A0E0049817
:10047A000099C969884202D20498079098E00598C1
:10048A0002900098406910B90020079090E000207F
:10049A00039002980599884228D102980130039066
:1004AA0003980099C969884201D3022003900698EB
:1004BA000399FFF7FAFD04900498012802D00498E2
:1004CA00013010B90498079072E0049870B100984E
:1004DA00006904900498022806D304980099C9690F
:1004EA00884201D20498029000200390039858BBD6
:1004FA000298039003980130039003980099C96900
:10050A00884208D30220039003980299884202D9AC
:10051A00002007904CE006980399FFF7C6FD049067
:10052A00049800B910E00498012802D00498013018
:10053A0010B9049807903BE003980299884202D1C7
:10054A000020079034E0D5E7009803994FF0FF3276
:10055A0008F024F88DF807009DF8070040B90598BF
:10056A0030B100980599039A08F018F88DF8070039
:10057A009DF8070090B903980099086100994869A5
:10058A00C9690239884203D8009948690138486123
:10059A000099087940F00100087107E09DF80710FA
:1005AA000120012908BF4FF0FF30039003980790FC
:0605BA00079808B080BDA7
:1005C00080B582B00190019808F0B7F88DF803006B
:1005D0009DF8030000284AD10198007803283CD1F7
:1005E00001980079012838D1019838304FF4007112
:1005F000FDF71CFD019800F236204AF6552107F060
:100600000CFC0198383045F25221C4F2611107F018
:10061000EAF9019800F5077047F27221C6F241111C
:1006200007F0E1F9019901F50870496907F0DBF974
:10063000019901F50970096907F0D5F90199486A2E
:1006400001304863019A507802F13801526B01235E
:10065000FFF77AF90199002008710198407800228B
:100660001146FBF7C1FD10B101208DF803009DF884
:06067000030002B080BD92
:1006760080B584B00390039807F062FB8DF80B00F9
:100686009DF80B0058B9039801A907F0E5F98DF814
:100696000B009DF80B0010B90399002008609DF827
:0606A6000B0004B080BD52
:1006AC0080B58AB008900791089805A907F0D1F990
:1006BC008DF81B009DF81B0018B90898407C8DF82C
:1006CC001B009DF81B0020B19DF81B008DF8270026
:1006DC00FBE007980899C968884207D90898007CFC
:1006EC008007002802D40898C068079008984069D1
:1006FC00019000200290089948610798002800F0AA
:10070C009E8005984089400203900198D0B10798CB
:10071C000138039AB0FBF2F001990139B1FBF2F107
:10072C0088420FD30198013803994942084008992F
:10073C004861089841690798401A079008988069A1
:10074C00049021E00898806804900498C8B908982F
:10075C000021FFF764FE04900498012805D1089944
:10076C00022048748DF82700AFE00498013028B9B6
:10077C000899012048748DF82700A6E00498089980
:10078C0088600498089988610498002857D00798C5
:10079C000399884238D903990798401A0790039A0D
:1007AC0008994869104448610898007C8007002823
:1007BC000AD508980499FFF732FE0490049810B9F2
:1007CC000020079020E004E008980499FFF76CFCE7
:1007DC0004900498013028B90899012048748DF8C8
:1007EC00270072E00498022804D304980599C9697B
:1007FC00884205D30899022048748DF8270064E0DC
:10080C00049808998861C2E7079A089948691044C6
:10081C004861BDF81C00C00588B105980499FFF724
:10082C00D0FC0290029828B90899022048748DF8DF
:10083C0027004AE00799029800EB51200290089893
:10084C00C1684069884207D908994869C860089905
:10085C00087C40F0400008740898808AC00580B37A
:10086C0002980899C96988422BD00898007C000628
:10087C00002814D505984078089A02F12801D2690D
:10088C000123FFF75BF828B10899012048748DF813
:10089C0027001AE00899087C00F07F00087405987E
:1008AC00407808992831029A012306F0A6FD28B158
:1008BC000899012048748DF8270006E002980899E1
:1008CC00C8619DF81B008DF827009DF827000AB021
:0208DC0080BDDD
:1008DE0080B5ADF5067D84908391849818B9092072
:1008EE008DF817024CE083A881A9002206F00AFEBB
:1008FE008DF80B029DF80B02C0BB8198849908609D
:10090E00819901A8C8608498839906F0D5FF8DF867
:10091E000B029DF80B0210BB849890F82B0000067A
:10092E0000280FD484988079C006002807D58198B6
:10093E008499C969FFF7F3FA8499886002E005206B
:10094E008DF80B029DF80B0248B98198C0888499E6
:10095E0088808498002107F0AFFA8DF80B029DF87D
:10096E000B02042802D105208DF80B029DF80B0214
:10097E0010B18499002008609DF80B028DF81702C3
:0A098E009DF817020DF5067D80BDEF
:1009980080B584B00390039801A907F05CF88DF83E
:1009A8000B009DF80B0010B90399002008609DF812
:0609B8000B0004B080BD3D
:1009BE0080B588B00790069104208DF8170007982F
:1009CE0000680490FF208DF80D008DF80C0007983C
:1009DE008069002800F08F80049807998969FFF7D5
:1009EE0039FB8DF817009DF8170000B183E00798CA
:1009FE00C06900788DF80E009DF80E0018B904201D
:100A0E008DF8170077E00798C069C07A00F03F00B4
:100A1E008DF80F00079988719DF80E00E5280ED00D
:100A2E009DF80E002E280AD09DF80F0000F0DF0072
:100A3E000838B0FA80F040090699884203D0FF20AA
:100A4E008DF80D004CE09DF80F000F2835D19DF864
:100A5E000E004006002811D50798C069407B8DF81E
:100A6E000C009DF80E0000F0BF008DF80E009DF8F2
:100A7E000E008DF80D0007990869C8629DF80E00EA
:100A8E009DF80D10884212D19DF80C000799C96986
:100A9E00497B88420BD10498C0680799C96900F058
:100AAE0082FE20B19DF80D000138029001E0FF207A
:100ABE00029002988DF80D0012E09DF80D0050B9CD
:100ACE009DF80C0001900798C06907F041FC0146A3
:100ADE000198884203D007994FF0FF30C8620AE0B0
:100AEE000798002107F0A6FA8DF817009DF8170059
:100AFE0000B100E06BE79DF8170010B107990020D8
:0A0B0E0088619DF8170008B080BD53
:100B180080B588B0079006910798006801900699FB
:100B2800002088750798806900B9F4E00798C06AC2
:100B3800013000284BD0002004900590ADF80A0041
:100B48000198C068059930F81100B0B30198C068E1
:100B580005994A1C059230F81100ADF80C00BDF853
:100B68000A0070B9BDF80C00B0F5584F09DBBDF8A4
:100B78000C00B0F5604F04DABDF80C00ADF80A00BF
:100B8800DEE7BDF80A10BDF80C0040EA01400699FE
:100B9800049A11441631C2F1FF0200F06AFE009077
:100BA800009810B90020049007E0009904980844C0
:100BB80004900020ADF80A00C2E7BDF80A0008B1A9
:100BC80000200490069804990144002088750020AC
:100BD8000490059005980A2829D80798C0690599AE
:100BE8004A1C0592405CADF80C00BDF80C002028AA
:100BF80000D1EFE7BDF80C00052802D1E520ADF8DB
:100C08000C000598092809D104980B2806D80699DC
:100C180004980144013004902E2048729DF80C007D
:100C28000699049A1144013204924872D2E7069850
:100C380004990144002048720698807D00284ED10E
:100C4800049838B9069904980144013004903F206B
:100C5800887538E000200490059008208DF80F0072
:100C6800069805990844407A68B306980599084497
:100C7800407AADF80C00BDF80C002E2802D11020E7
:100C88008DF80F00BDF80C0041280FDBBDF80C00F3
:100C98005A280BDC0798C069007B9DF80F100842A2
:100CA80004D0BDF80C002030ADF80C009DF80C0005
:100CB8000699049A1144887505980130059004989E
:100CC80001300490CCE70698049901440020887507
:100CD8000798C069007B10B90699002048720798E8
:100CE800C069C07A00F03F00069908720798C06989
:100CF8001C3006F096FE069908600798C069163001
:100D080007F033FA0699C8800798C069183007F0C9
:0A0D18002CFA0699888008B080BD0F
:100D220080B5ADF5107D8F908E918FA881A900229C
:100D320006F0EEFB8DF837029DF83702D0B98199A3
:100D420001A8C8608F9981A806F0BCFD8DF8370212
:100D52009DF8370270B99DF82F020006002803D5CE
:100D620006208DF8370205E08E9818B18E9981A879
:0E0D7200FFF7D1FE9DF837020DF5107D80BD14
:100D800080B5ADF5187D979097A885A9022206F049
:100D9000C0FB8DF85B029DF85B02002840F0A68046
:100DA00085988A90859902A8C86097998AA806F0C4
:100DB0008AFD8DF85B029DF85B0210B908208DF862
:100DC0005B029DF85B02042807D19DF85302800660
:100DD000002802D506208DF85B029DF85B020428EE
:100DE00040F084808598869086A800210191FFF7C5
:100DF0001CFB0146019884918DF85B02849810B920
:100E000007208DF85B028498012802D102208DF81A
:100E10005B028498013010B901208DF85B0206F066
:100E2000EEFA82909DF85B0200283ED18598849965
:100E300000F061F88DF85B029DF85B02A8BB859914
:100E40004FF02030C1F83F00C863886385992E2099
:100E5000009081F838008599102081F8430085982A
:100E60004E30829906F0BFFD859800F13801849AD2
:100E7000FFF775F8859800F1380158302022FDF70A
:100E8000AFF80098859981F859008C9883908598DF
:100E900000F15801839AFFF762F885990120C87024
:100EA0008AA8FEF74EFF8DF85B029DF85B02C0B981
:100EB00091981630829906F096FD85989199849ABA
:100EC000FFF74DF891991020C87285990120C870DC
:100ED0009DF85B0220B98598FFF772FB8DF85B02E5
:100EE00004E0849986A80022FFF750F89DF85B0281
:060EF0000DF5187D80BD28
:100EF60080B588B006900591069807F01BFC18B1DE
:100F060001208DF81F0038E006980599FFF75CF977
:100F16000490049806994863069838304FF4007197
:100F2600FDF781F8069838300190012002900020E4
:100F360003900399069842890020914200900CD2B2
:100F4600069840780199049A039B1A44029BFEF77F
:100F5600F8FCB0FA80F0400900900098C00720B174
:100F66000299039808440390E3E703980699498990
:100F7600401A18BF01208DF81F009DF81F0008B009
:020F860080BD2C
:100F880080B58CB00A9009910A98002100F057F8B2
:100F980008900898022807D00898022801D80998CC
:100FA80010B908980B9047E000200790079803288D
:100FB8000FD80A98079900EB011000F5FF7006F0AA
:100FC80030FD079A03A941F82200079801300790DD
:100FD800ECE7099818B109980138029001E000205F
:100FE800029002980790079903A850F8210040B191
:100FF8000A98079A03A951F8221000F020F80190E6
:1010080001E00320019001980890099900200090C0
:1010180061B9089900200229009007D30798411C5C
:1010280007910020042938BF012000900098C007CC
:0E1038000028D8D108980B900B980CB080BD02
:1010460080B586B00490039104990020C870049975
:101056004FF0FF30486304980399FEF7FFFF10B185
:10106600042005907AE0049800F2362007F07EF816
:10107600ADF80800049890F838008DF807009DF840
:101086000700EB2807D09DF80700E92803D09DF854
:101096000700E82859D1BDF808004AF655218842CC
:1010A6000CD104988A304EF2DB41C0F601010822C9
:1010B60005F099FE10B9002005904FE004984330E2
:1010C60007F054F8ADF80A00049890F845008DF83A
:1010D6000700BDF80A00411E084236D1BDF80A00D5
:1010E600B0F5007F31DBBDF80A00B0F5007F2CDCDF
:1010F6009DF8070048B39DF80700411E084224D119
:101106000498463007F032F8F8B1049890F8480091
:101116000138012819D80498493007F027F8A0B1FA
:1011260004984B3007F022F87F2806DC04985830E4
:1011360006F078FCB0F5803F07D304984E3007F0F0
:1011460015F810B10020059008E0BDF808104AF621
:1011560055220320914208BF02200590059806B04B
:0211660080BD4A
:1011680080B58EB00C900B910B98006803900C988A
:101178000068C06809900020049003A800F023FAD2
:1011880008900898013018B906208DF8370016E243
:101198000898B0F5803F07D3BDF822000999049A52
:1011A800531C049321F812000898ADF82800BDF8E4
:1011B8002800202807DBBDF828002F2803D0BDF819
:1011C80028005C2800D120E0BDF828007F280CDC2E
:1011D800BDF828104EF2E440C0F60100FCF7D2FE3C
:1011E80018B106208DF83700E9E10498FF2803D3E9
:1011F80006208DF83700E2E1BDF828000999049A25
:10120800531C049321F81200B7E7BDF828001F28E3
:1012180003DC04208DF82A001DE0039801780120E2
:101228002F29029006D0039800785C38B0FA80F035
:10123800400902900298C00718B103980130039042
:10124800EBE700208DF82A00039800781F2802D8C1
:1012580004208DF82A0003980B9908600498012847
:1012680007D10998049900EB410030F8020C2E28A8
:1012780012D00498022833D10998049900EB410050
:1012880030F8020C2E282BD10998049900EB410064
:1012980030F8040C2E2823D10999049A002021F84B
:1012A8001200079007980A280DD8079A0499202059
:1012B8008A4238BF2E200C99114481F820000798E3
:1012C80001300790EEE79DF82A0040F020000C99C5
:1012D800079A114481F8200000208DF837006EE14C
:1012E8000498A0B10998049900EB410030F8020C69
:1012F800ADF82800BDF82800202804D0BDF8280043
:101308002E2800D003E0049801380490E8E70999F2
:10131800049A002021F81200049818B906208DF8C4
:1013280037004CE1002005900998059930F8110024
:10133800202803D1059801300590F5E7059828B9CC
:101348000998059930F811002E2805D19DF82A0032
:1013580040F003008DF82A0004990020019049B15B
:101368000998049900EB410030F8020C2E3818BF98
:10137800012001900198C00718B104980138049021
:10138800EAE70C994FF02030C1F82700486208625C
:1013980000208DF82B0007900820069009980599E1
:1013A8004A1C059230F81100ADF82800BDF8280055
:1013B80000B9BFE0BDF82800202807D0BDF82800F4
:1013C8002E280AD105980499884206D09DF82A004B
:1013D80040F003008DF82A00E0E707980699884254
:1013E80003D205980499884224D106980B2806D17F
:1013F8009DF82A0040F003008DF82A009AE005982D
:101408000499884205D09DF82A0040F003008DF821
:101418002A0005980499884200D98BE00498059021
:10142800082007900B2006909DF82B0080008DF86F
:101438002B00B3E7BDF8280080281DDB9DF82A00A3
:1014480040F002008DF82A00BDF8280040F2B511DE
:1014580007F0A1F9ADF828009DF82800000600283B
:101468000AD5BDF8280000F07F014EF6DC10C0F662
:101478000100405CADF82800BDF82800B0F5807F79
:1014880017DB079806990139884208D39DF82A0086
:1014980040F003008DF82A00069807907EE79DF833
:1014A80029000C99079A11440132079281F820000B
:1014B80036E0BDF8280040B1BDF828104DF69B2055
:1014C800C0F60100FCF75EFD48B15F20ADF82800CA
:1014D8009DF82A0040F003008DF82A0020E0BDF8AE
:1014E8002800412809DBBDF828005A2805DC9DF8AA
:1014F8002B0040F002008DF82B00BDF82800612871
:101508000EDBBDF828007A280ADC9DF82B0040F095
:1015180001008DF82B00BDF828002038ADF8280010
:101528009DF828000C99079A11440132079281F816
:10153800200033E70C9890F82000E52803D10C9997
:10154800052081F820000698082804D19DF82B0072
:1015580080008DF82B009DF82B0000F00C000C2863
:1015680005D09DF82B0000F00300032805D19DF855
:101578002A0040F002008DF82A009DF82A00800712
:10158800002814D49DF82B00C00728B19DF82A0024
:1015980040F010008DF82A009DF82B004007002825
:1015A80005D59DF82A0040F008008DF82A009DF81E
:1015B8002A000C9981F82B0000208DF837009DF83F
:0615C80037000EB080BDEB
:1015CE0080B586B004900498006802900298411C81
:1015DE0002910078ADF804009DF8040006F09CFE20
:1015EE00B0B10298411C029100788DF807009DF869
:1015FE00070006F09FFE18B94FF0FF30059021E06E
:10160E00BDF804109DF8070040EA0120ADF8040073
:10161E00BDF8040070B1BDF8040040F2B51107F03A
:10162E00F9F8ADF80400BDF8040018B94FF0FF301A
:10163E00059007E0BDF80400039002980499086035
:0A164E0003980590059806B080BDD2
:1016580080B588B00690059105981A3006F085FD8A
:1016680010B10020079059E00598007800F03F007D
:101678000D2148430D3804900120ADF80A000020E0
:10168800039003980C2837D80598039A4EF2ED4139
:10169800C0F60101895C084406F067FDADF8080052
:1016A800BDF80A00D8B10498FF2810D8BDF8080082
:1016B800FCF740FD0190069804994A1C049230F802
:1016C8001100FCF737FD01460198884202D000203E
:1016D800079023E0BDF80800ADF80A0008E0BDF85F
:1016E80008004FF6FF71884202D00020079015E0ED
:1016F800039801300390C4E7059800784006002855
:101708000AD5BDF80A0038B10698049930F81100D6
:1017180010B10020079001E001200790079808B059
:0217280080BD82
:10172A0080B586B0059004910598006801900598E7
:10173A00002106F0C3FB8DF80F009DF80F0048BB8F
:10174A0000200290019805998969FEF785FC8DF8B9
:10175A000F009DF80F0000B11CE00598C0690078E1
:10176A00E52803D00598C069007838B90298013095
:10177A0002900499884200D10CE001E00020029016
:10178A000598012106F058FC8DF80F009DF80F000E
:10179A000028D7D09DF80F00042802D107208DF821
:0A17AA000F009DF80F0006B080BD8F
:1017B40080B586B00490039103981A3006F0D7FCE4
:1017C40010B10020059053E00398007800F0BF00AA
:1017D4000D2148430D3802900120ADF8020000208D
:1017E400019001980C282DD80398019A4EF2ED41EE
:1017F400C0F60101895C084406F0B9FCADF80000AC
:10180400BDF8020088B10298B0F5807F02D30020B1
:1018140005902DE0BDF80000ADF802000499029A8D
:10182400531C029321F8120008E0BDF800004FF6A3
:10183400FF71884202D00020059019E00198013020
:101844000190CEE703980078400600280ED5BDF835
:10185400020058B10298B0F5807F02D300200590B1
:1018640006E00499029A002021F812000120059054
:06187400059806B080BDDE
:10187A0080B586B0049003910292049840F2B511A3
:10188A0006F088FFADF80600BDF80600B0F5807FC7
:10189A0014DB0298012802D8002005901EE09DF86A
:1018AA00070003994A1C039208709DF806000399E1
:1018BA004A1C03920870022005900FE0BDF806004A
:1018CA0008B1029810B90020059007E09DF80600BB
:1018DA0003994A1C0392087001200590059806B0E6
:0218EA0080BDBF
:1018EC0061001A03E0001703F8000703FF00010072
:1018FC0078010001300132010601390110014A0161
:10190C002E017901060180014D0043028101820103
:10191C0082018401840186018701870189018A0182
:10192C008B018B018D018E018F0190019101910131
:10193C0093019401F60196019701980198013D02DB
:10194C009B019C019D0120029F01A001A001A2010D
:10195C00A201A401A401A601A701A701A901AA0142
:10196C00AB01AC01AC01AE01AF01AF01B101B201F1
:10197C00B301B301B501B501B701B801B801BA01A2
:10198C00BB01BC01BC01BE01F701C001C101C20118
:10199C00C301C401C501C401C701C801C701CA0103
:1019AC00CB01CA01CD011001DD0101008E01DE0168
:1019BC001201F3010300F101F401F401F801280113
:1019CC00220212013A020900652C3B023B023D0245
:1019DC00662C3F0240024102410246020A015302B8
:1019EC00400081018601550289018A0158028F014C
:1019FC005A0290015C025D025E025F029301610279
